{"contracts/Voting.sol":{"Voting":{"abi":[{"inputs":[{"internalType":"string","name":"_title","type":"string"}],"stateMutability":"nonpayable","type":"constructor"},{"anonymous":false,"inputs":[{"indexed":true,"internalType":"uint256","name":"candidateId","type":"uint256"},{"indexed":false,"internalType":"string","name":"name","type":"string"}],"name":"CandidateAdded","type":"event"},{"anonymous":false,"inputs":[{"indexed":true,"internalType":"address","name":"voter","type":"address"},{"indexed":true,"internalType":"uint256","name":"candidateId","type":"uint256"}],"name":"VoteCasted","type":"event"},{"anonymous":false,"inputs":[{"indexed":true,"internalType":"address","name":"voter","type":"address"}],"name":"VoterRegistered","type":"event"},{"anonymous":false,"inputs":[],"name":"VotingEnded","type":"event"},{"anonymous":false,"inputs":[],"name":"VotingReset","type":"event"},{"anonymous":false,"inputs":[],"name":"VotingStarted","type":"event"},{"inputs":[{"internalType":"string","name":"_name","type":"string"}],"name":"addCandidate","outputs":[],"stateMutability":"nonpayable","type":"function"},{"inputs":[{"internalType":"uint256","name":"","type":"uint256"}],"name":"candidates","outputs":[{"internalType":"uint256","name":"id","type":"uint256"},{"internalType":"string","name":"name","type":"string"},{"internalType":"uint256","name":"voteCount","type":"uint256"}],"stateMutability":"view","type":"function"},{"inputs":[],"name":"candidatesCount","outputs":[{"internalType":"uint256","name":"","type":"uint256"}],"stateMutability":"view","type":"function"},{"inputs":[],"name":"endVoting","outputs":[],"stateMutability":"nonpayable","type":"function"},{"inputs":[],"name":"getAllCandidates","outputs":[{"components":[{"internalType":"uint256","name":"id","type":"uint256"},{"internalType":"string","name":"name","type":"string"},{"internalType":"uint256","name":"voteCount","type":"uint256"}],"internalType":"struct Voting.Candidate[]","name":"","type":"tuple[]"}],"stateMutability":"view","type":"function"},{"inputs":[{"internalType":"uint256","name":"_candidateId","type":"uint256"}],"name":"getCandidate","outputs":[{"internalType":"uint256","name":"","type":"uint256"},{"internalType":"string","name":"","type":"string"},{"internalType":"uint256","name":"","type":"uint256"}],"stateMutability":"view","type":"function"},{"inputs":[{"internalType":"address","name":"_voter","type":"address"}],"name":"getVoterInfo","outputs":[{"internalType":"bool","name":"","type":"bool"},{"internalType":"bool","name":"","type":"bool"},{"internalType":"uint256","name":"","type":"uint256"}],"stateMutability":"view","type":"function"},{"inputs":[],"name":"getVotingStatus","outputs":[{"internalType":"string","name":"","type":"string"},{"internalType":"bool","name":"","type":"bool"},{"internalType":"bool","name":"","type":"bool"},{"internalType":"uint256","name":"","type":"uint256"},{"internalType":"uint256","name":"","type":"uint256"}],"stateMutability":"view","type":"function"},{"inputs":[],"name":"getWinningCandidate","outputs":[{"internalType":"uint256","name":"","type":"uint256"},{"internalType":"string","name":"","type":"string"},{"internalType":"uint256","name":"","type":"uint256"}],"stateMutability":"view","type":"function"},{"inputs":[],"name":"owner","outputs":[{"internalType":"address","name":"","type":"address"}],"stateMutability":"view","type":"function"},{"inputs":[{"internalType":"address[]","name":"_voters","type":"address[]"}],"name":"registerMultipleVoters","outputs":[],"stateMutability":"nonpayable","type":"function"},{"inputs":[{"internalType":"address","name":"_voter","type":"address"}],"name":"registerVoter","outputs":[],"stateMutability":"nonpayable","type":"function"},{"inputs":[{"internalType":"address[]","name":"_voters","type":"address[]"}],"name":"resetMultipleVoters","outputs":[],"stateMutability":"nonpayable","type":"function"},{"inputs":[{"internalType":"address","name":"_voter","type":"address"}],"name":"resetVoter","outputs":[],"stateMutability":"nonpayable","type":"function"},{"inputs":[{"internalType":"string","name":"_newTitle","type":"string"}],"name":"resetVoting","outputs":[],"stateMutability":"nonpayable","type":"function"},{"inputs":[],"name":"startVoting","outputs":[],"stateMutability":"nonpayable","type":"function"},{"inputs":[],"name":"totalVotes","outputs":[{"internalType":"uint256","name":"","type":"uint256"}],"stateMutability":"view","type":"function"},{"inputs":[{"internalType":"uint256","name":"_candidateId","type":"uint256"}],"name":"vote","outputs":[],"stateMutability":"nonpayable","type":"function"},{"inputs":[{"internalType":"address","name":"","type":"address"}],"name":"voters","outputs":[{"internalType":"bool","name":"hasVoted","type":"bool"},{"internalType":"uint256","name":"votedCandidateId","type":"uint256"},{"internalType":"bool","name":"isRegistered","type":"bool"}],"stateMutability":"view","type":"function"},{"inputs":[],"name":"votingActive","outputs":[{"internalType":"bool","name":"","type":"bool"}],"stateMutability":"view","type":"function"},{"inputs":[],"name":"votingEnded","outputs":[{"internalType":"bool","name":"","type":"bool"}],"stateMutability":"view","type":"function"},{"inputs":[],"name":"votingTitle","outputs":[{"internalType":"string","name":"","type":"string"}],"stateMutability":"view","type":"function"}],"evm":{"bytecode":{"linkReferences":{},"object":"60806040523480156200001157600080fd5b5060405162001e1438038062001e14833981016040819052620000349162000087565b600080546001600160a01b031916331790556001620000548282620001eb565b50506002805461ffff1916905560006005819055600655620002b7565b634e487b7160e01b600052604160045260246000fd5b600060208083850312156200009b57600080fd5b82516001600160401b0380821115620000b357600080fd5b818501915085601f830112620000c857600080fd5b815181811115620000dd57620000dd62000071565b604051601f8201601f19908116603f0116810190838211818310171562000108576200010862000071565b8160405282815288868487010111156200012157600080fd5b600093505b8284101562000145578484018601518185018701529285019262000126565b600086848301015280965050505050505092915050565b600181811c908216806200017157607f821691505b6020821081036200019257634e487b7160e01b600052602260045260246000fd5b50919050565b601f821115620001e657600081815260208120601f850160051c81016020861015620001c15750805b601f850160051c820191505b81811015620001e257828155600101620001cd565b5050505b505050565b81516001600160401b0381111562000207576200020762000071565b6200021f816200021884546200015c565b8462000198565b602080601f8311600181146200025757600084156200023e5750858301515b600019600386901b1c1916600185901b178555620001e2565b600085815260208120601f198616915b82811015620002885788860151825594840194600190910190840162000267565b5085821015620002a75787850151600019600388901b60f8161c191681555b5050505050600190811b01905550565b611b4d80620002c76000396000f3fe608060405234801561001057600080fd5b50600436106101425760003560e01c80636f5cfd82116100b8578063a3ec138d1161007c578063a3ec138d1461030b578063ba05269b1461035e578063c3403ddf14610371578063f225c1f814610379578063f90cbf2f1461038c578063f927cc291461039f57600080fd5b80636f5cfd821461022f578063711e6eed146102425780638da5cb5b146102575780639d5a0529146102825780639ed1f2551461029457600080fd5b80633477ee2e1161010a5780633477ee2e1461019e57806335b8e820146101c057806338db6dd3146101d3578063408e2727146101e6578063462e91ec14610203578063581c281c1461021657600080fd5b80630121b93f146101475780630d15fd771461015c5780631ec6b60a146101785780632d35a8a2146101805780632e6997fe14610189575b600080fd5b61015a61015536600461160d565b6103a7565b005b61016560065481565b6040519081526020015b60405180910390f35b61015a6105ae565b61016560055481565b61019161071d565b60405161016f919061166c565b6101b16101ac36600461160d565b6108a6565b60405161016f939291906116ed565b6101b16101ce36600461160d565b610951565b61015a6101e1366004611732565b610a89565b6002546101f39060ff1681565b604051901515815260200161016f565b61015a61021136600461179b565b610b7c565b61021e610d19565b60405161016f959493929190611830565b61015a61023d36600461179b565b610de6565b61024a610f0f565b60405161016f9190611867565b60005461026a906001600160a01b031681565b6040516001600160a01b03909116815260200161016f565b6002546101f390610100900460ff1681565b6102ee6102a2366004611732565b6001600160a01b03166000908152600460209081526040918290208251606081018452815460ff9081161515808352600184015494830185905260029093015416151593018390529192565b60408051931515845291151560208401529082015260600161016f565b61033f610319366004611732565b60046020526000908152604090208054600182015460029092015460ff91821692911683565b604080519315158452602084019290925215159082015260600161016f565b61015a61036c366004611732565b610f9d565b61015a611057565b61015a61038736600461187a565b61115a565b61015a61039a36600461187a565b611335565b6101b1611464565b60025460ff1680156103c15750600254610100900460ff16155b61040c5760405162461bcd60e51b81526020600482015260176024820152762632903b37ba32903713b2b9ba103830b99030b1ba34b360491b60448201526064015b60405180910390fd5b3360009081526004602052604090205460ff16156104625760405162461bcd60e51b8152602060048201526013602482015272566f7573206176657a2064656a6120766f746560681b6044820152606401610403565b3360009081526004602052604090206002015460ff166104d65760405162461bcd60e51b815260206004820152602960248201527f566f7573206e27657465732070617320656e726567697374726520636f6d6d656044820152681032b632b1ba32bab960b91b6064820152608401610403565b6000811180156104e857506005548111155b6105285760405162461bcd60e51b815260206004820152601160248201527043616e646964617420696e76616c69646560781b6044820152606401610403565b336000908152600460209081526040808320805460ff19166001908117825501849055838352600390915281206002018054916105648361193d565b9091555050600680549060006105798361193d565b9091555050604051819033907fd0e6c39f2e086dc49f1524b47725526a56945cd1ff661f37976f1725a1e5698690600090a350565b6000546001600160a01b031633146105d85760405162461bcd60e51b815260040161040390611956565b6000600554116106465760405162461bcd60e51b815260206004820152603360248201527f496c2066617574206175206d6f696e7320756e2063616e646964617420706f756044820152727220636f6d6d656e636572206c6520766f746560681b6064820152608401610403565b60025460ff16156106925760405162461bcd60e51b81526020600482015260166024820152752632903b37ba329032b9ba103232b5309030b1ba34b360511b6044820152606401610403565b600254610100900460ff16156106e55760405162461bcd60e51b81526020600482015260186024820152774c6520766f7465206573742064656a61207465726d696e6560401b6044820152606401610403565b6002805460ff191660011790556040517f877e2548498f42b7975a186b94ef1d32c86d420b7b806dd2be2bea293b89590490600090a1565b6060600060055467ffffffffffffffff81111561073c5761073c611754565b60405190808252806020026020018201604052801561079157816020015b61077e60405180606001604052806000815260200160608152602001600081525090565b81526020019060019003908161075a5790505b50905060015b60055481116108a05760036000828152602001908152602001600020604051806060016040529081600082015481526020016001820180546107d8906119a5565b80601f0160208091040260200160405190810160405280929190818152602001828054610804906119a5565b80156108515780601f1061082657610100808354040283529160200191610851565b820191906000526020600020905b81548152906001019060200180831161083457829003601f168201915b505050505081526020016002820154815250508260018361087291906119d9565b81518110610882576108826119f2565b602002602001018190525080806108989061193d565b915050610797565b50919050565b600360205260009081526040902080546001820180549192916108c8906119a5565b80601f01602080910402602001604051908101604052809291908181526020018280546108f4906119a5565b80156109415780601f1061091657610100808354040283529160200191610941565b820191906000526020600020905b81548152906001019060200180831161092457829003601f168201915b5050505050908060020154905083565b600060606000808411801561096857506005548411155b6109a85760405162461bcd60e51b815260206004820152601160248201527043616e646964617420696e76616c69646560781b6044820152606401610403565b600060036000868152602001908152602001600020604051806060016040529081600082015481526020016001820180546109e2906119a5565b80601f0160208091040260200160405190810160405280929190818152602001828054610a0e906119a5565b8015610a5b5780601f10610a3057610100808354040283529160200191610a5b565b820191906000526020600020905b815481529060010190602001808311610a3e57829003601f168201915b5050509183525050600291909101546020918201528151908201516040909201519097919650945092505050565b6000546001600160a01b03163314610ab35760405162461bcd60e51b815260040161040390611956565b6001600160a01b03811660009081526004602052604090206002015460ff1615610b1f5760405162461bcd60e51b815260206004820181905260248201527f43657420656c656374657572206573742064656a6120656e72656769737472656044820152606401610403565b6001600160a01b038116600081815260046020526040808220600281018054600160ff199182168117909255825416825501829055517fb6be2187d059cc2a55fe29e0e503b566e1e0f8c8780096e185429350acffd3dd9190a250565b6000546001600160a01b03163314610ba65760405162461bcd60e51b815260040161040390611956565b60025460ff1615610c145760405162461bcd60e51b815260206004820152603260248201527f496d706f737369626c65206427616a6f75746572206465732063616e6469646160448201527174732070656e64616e74206c6520766f746560701b6064820152608401610403565b6000815111610c765760405162461bcd60e51b815260206004820152602860248201527f4c65206e6f6d2064752063616e6469646174206e652070657574207061732065604482015267747265207669646560c01b6064820152608401610403565b60058054906000610c868361193d565b9091555050604080516060810182526005548082526020808301858152600084860181905292835260039091529290208151815591519091906001820190610cce9082611a57565b50604082015181600201559050506005547fe83b2a43e7e82d975c8a0a6d2f045153c869e111136a34d1889ab7b598e396a382604051610d0e9190611867565b60405180910390a250565b60606000806000806001600260009054906101000a900460ff16600260019054906101000a900460ff16600554600654848054610d55906119a5565b80601f0160208091040260200160405190810160405280929190818152602001828054610d81906119a5565b8015610dce5780601f10610da357610100808354040283529160200191610dce565b820191906000526020600020905b815481529060010190602001808311610db157829003601f168201915b50505050509450945094509450945094509091929394565b6000546001600160a01b03163314610e105760405162461bcd60e51b815260040161040390611956565b600254610100900460ff16610e8d5760405162461bcd60e51b815260206004820152603b60248201527f4c6520766f746520646f69742065747265207465726d696e65206176616e742060448201527f646520706f75766f6972206c65207265696e697469616c6973657200000000006064820152608401610403565b6002805461ffff191690556000600655805115610eb2576001610eb08282611a57565b505b60015b6005548111610ee25760008181526003602052604081206002015580610eda8161193d565b915050610eb5565b506040517feb4b0a76799cb305ae86d5a0b30e0e77b1e23fa8cb85eb788ede212bd6b324a690600090a150565b60018054610f1c906119a5565b80601f0160208091040260200160405190810160405280929190818152602001828054610f48906119a5565b8015610f955780601f10610f6a57610100808354040283529160200191610f95565b820191906000526020600020905b815481529060010190602001808311610f7857829003601f168201915b505050505081565b6000546001600160a01b03163314610fc75760405162461bcd60e51b815260040161040390611956565b6001600160a01b03811660009081526004602052604090206002015460ff166110325760405162461bcd60e51b815260206004820152601f60248201527f4c27656c656374657572206e276573742070617320656e7265676973747265006044820152606401610403565b6001600160a01b03166000908152600460205260408120805460ff1916815560010155565b6000546001600160a01b031633146110815760405162461bcd60e51b815260040161040390611956565b60025460ff166110cd5760405162461bcd60e51b81526020600482015260176024820152762632903b37ba32903713b2b9ba103830b99030b1ba34b360491b6044820152606401610403565b600254610100900460ff16156111205760405162461bcd60e51b81526020600482015260186024820152774c6520766f7465206573742064656a61207465726d696e6560401b6044820152606401610403565b6002805461ffff19166101001790556040517f7a19ed057db79e3c2fa0b97a54b43bef4fce74b31bb6c01af514b9a18a7f70ab90600090a1565b6000546001600160a01b031633146111845760405162461bcd60e51b815260040161040390611956565b60005b815181101561133157600460008383815181106111a6576111a66119f2565b6020908102919091018101516001600160a01b031682528101919091526040016000206002015460ff1661131f576001600460008484815181106111ec576111ec6119f2565b60200260200101516001600160a01b03166001600160a01b0316815260200190815260200160002060020160006101000a81548160ff021916908315150217905550600060046000848481518110611246576112466119f2565b60200260200101516001600160a01b03166001600160a01b0316815260200190815260200160002060000160006101000a81548160ff0219169083151502179055506000600460008484815181106112a0576112a06119f2565b60200260200101516001600160a01b03166001600160a01b03168152602001908152602001600020600101819055508181815181106112e1576112e16119f2565b60200260200101516001600160a01b03167fb6be2187d059cc2a55fe29e0e503b566e1e0f8c8780096e185429350acffd3dd60405160405180910390a25b806113298161193d565b915050611187565b5050565b6000546001600160a01b0316331461135f5760405162461bcd60e51b815260040161040390611956565b60005b81518110156113315760046000838381518110611381576113816119f2565b6020908102919091018101516001600160a01b031682528101919091526040016000206002015460ff1615611452576000600460008484815181106113c8576113c86119f2565b60200260200101516001600160a01b03166001600160a01b0316815260200190815260200160002060000160006101000a81548160ff021916908315150217905550600060046000848481518110611422576114226119f2565b60200260200101516001600160a01b03166001600160a01b03168152602001908152602001600020600101819055505b8061145c8161193d565b915050611362565b600060606000600260019054906101000a900460ff166114c65760405162461bcd60e51b815260206004820181905260248201527f4c6520766f7465206e276573742070617320656e636f7265207465726d696e656044820152606401610403565b6000600554116115095760405162461bcd60e51b815260206004820152600e60248201526d105d58dd5b8818d85b991a59185d60921b6044820152606401610403565b60008060015b600554811161155b576000818152600360205260409020600201548310156115495760008181526003602052604090206002015492509050805b806115538161193d565b91505061150f565b50806003600083815260200190815260200160002060010183818054611580906119a5565b80601f01602080910402602001604051908101604052809291908181526020018280546115ac906119a5565b80156115f95780601f106115ce576101008083540402835291602001916115f9565b820191906000526020600020905b8154815290600101906020018083116115dc57829003601f168201915b505050505091509450945094505050909192565b60006020828403121561161f57600080fd5b5035919050565b6000815180845260005b8181101561164c57602081850181015186830182015201611630565b506000602082860101526020601f19601f83011685010191505092915050565b60006020808301818452808551808352604092508286019150828160051b87010184880160005b838110156116df57603f19898403018552815160608151855288820151818a8701526116c182870182611626565b92890151958901959095525094870194925090860190600101611693565b509098975050505050505050565b8381526060602082015260006117066060830185611626565b9050826040830152949350505050565b80356001600160a01b038116811461172d57600080fd5b919050565b60006020828403121561174457600080fd5b61174d82611716565b9392505050565b634e487b7160e01b600052604160045260246000fd5b604051601f8201601f1916810167ffffffffffffffff8111828210171561179357611793611754565b604052919050565b600060208083850312156117ae57600080fd5b823567ffffffffffffffff808211156117c657600080fd5b818501915085601f8301126117da57600080fd5b8135818111156117ec576117ec611754565b6117fe601f8201601f1916850161176a565b9150808252868482850101111561181457600080fd5b8084840185840137600090820190930192909252509392505050565b60a08152600061184360a0830188611626565b95151560208301525092151560408401526060830191909152608090910152919050565b60208152600061174d6020830184611626565b6000602080838503121561188d57600080fd5b823567ffffffffffffffff808211156118a557600080fd5b818501915085601f8301126118b957600080fd5b8135818111156118cb576118cb611754565b8060051b91506118dc84830161176a565b81815291830184019184810190888411156118f657600080fd5b938501935b8385101561191b5761190c85611716565b825293850193908501906118fb565b98975050505050505050565b634e487b7160e01b600052601160045260246000fd5b60006001820161194f5761194f611927565b5060010190565b6020808252602f908201527f5365756c206c652070726f70726965746169726520706575742065786563757460408201526e32b91031b2ba3a329030b1ba34b7b760891b606082015260800190565b600181811c908216806119b957607f821691505b6020821081036108a057634e487b7160e01b600052602260045260246000fd5b818103818111156119ec576119ec611927565b92915050565b634e487b7160e01b600052603260045260246000fd5b601f821115611a5257600081815260208120601f850160051c81016020861015611a2f5750805b601f850160051c820191505b81811015611a4e57828155600101611a3b565b5050505b505050565b815167ffffffffffffffff811115611a7157611a71611754565b611a8581611a7f84546119a5565b84611a08565b602080601f831160018114611aba5760008415611aa25750858301515b600019600386901b1c1916600185901b178555611a4e565b600085815260208120601f198616915b82811015611ae957888601518255948401946001909101908401611aca565b5085821015611b075787850151600019600388901b60f8161c191681555b5050505050600190811b0190555056fea2646970667358221220470bfa2b7f061a36aef804c84aa61f09ea91bc24c87f0b24a5d14ab97ce2941764736f6c63430008130033","opcodes":"PUSH1 0x80 PUSH1 0x40 MSTORE CALLVALUE DUP1 ISZERO PUSH3 0x11 JUMPI PUSH1 0x0 DUP1 REVERT JUMPDEST POP PUSH1 0x40 MLOAD PUSH3 0x1E14 CODESIZE SUB DUP1 PUSH3 0x1E14 DUP4 CODECOPY DUP2 ADD PUSH1 0x40 DUP2 SWAP1 MSTORE PUSH3 0x34 SWAP2 PUSH3 0x87 JUMP JUMPDEST PUSH1 0x0 DUP1 SLOAD PUSH1 0x1 PUSH1 0x1 PUSH1 0xA0 SHL SUB NOT AND CALLER OR SWAP1 SSTORE PUSH1 0x1 PUSH3 0x54 DUP3 DUP3 PUSH3 0x1EB JUMP JUMPDEST POP POP PUSH1 0x2 DUP1 SLOAD PUSH2 0xFFFF NOT AND SWAP1 SSTORE PUSH1 0x0 PUSH1 0x5 DUP2 SWAP1 SSTORE PUSH1 0x6 SSTORE PUSH3 0x2B7 JUMP JUMPDEST PUSH4 0x4E487B71 PUSH1 0xE0 SHL PUSH1 0x0 MSTORE PUSH1 0x41 PUSH1 0x4 MSTORE PUSH1 0x24 PUSH1 0x0 REVERT JUMPDEST PUSH1 0x0 PUSH1 0x20 DUP1 DUP4 DUP6 SUB SLT ISZERO PUSH3 0x9B JUMPI PUSH1 0x0 DUP1 REVERT JUMPDEST DUP3 MLOAD PUSH1 0x1 PUSH1 0x1 PUSH1 0x40 SHL SUB DUP1 DUP3 GT ISZERO PUSH3 0xB3 JUMPI PUSH1 0x0 DUP1 REVERT JUMPDEST DUP2 DUP6 ADD SWAP2 POP DUP6 PUSH1 0x1F DUP4 ADD SLT PUSH3 0xC8 JUMPI PUSH1 0x0 DUP1 REVERT JUMPDEST DUP2 MLOAD DUP2 DUP2 GT ISZERO PUSH3 0xDD JUMPI PUSH3 0xDD PUSH3 0x71 JUMP JUMPDEST PUSH1 0x40 MLOAD PUSH1 0x1F DUP3 ADD PUSH1 0x1F NOT SWAP1 DUP2 AND PUSH1 0x3F ADD AND DUP2 ADD SWAP1 DUP4 DUP3 GT DUP2 DUP4 LT OR ISZERO PUSH3 0x108 JUMPI PUSH3 0x108 PUSH3 0x71 JUMP JUMPDEST DUP2 PUSH1 0x40 MSTORE DUP3 DUP2 MSTORE DUP9 DUP7 DUP5 DUP8 ADD ADD GT ISZERO PUSH3 0x121 JUMPI PUSH1 0x0 DUP1 REVERT JUMPDEST PUSH1 0x0 SWAP4 POP JUMPDEST DUP3 DUP5 LT ISZERO PUSH3 0x145 JUMPI DUP5 DUP5 ADD DUP7 ADD MLOAD DUP2 DUP6 ADD DUP8 ADD MSTORE SWAP3 DUP6 ADD SWAP3 PUSH3 0x126 JUMP JUMPDEST PUSH1 0x0 DUP7 DUP5 DUP4 ADD ADD MSTORE DUP1 SWAP7 POP POP POP POP POP POP POP SWAP3 SWAP2 POP POP JUMP JUMPDEST PUSH1 0x1 DUP2 DUP2 SHR SWAP1 DUP3 AND DUP1 PUSH3 0x171 JUMPI PUSH1 0x7F DUP3 AND SWAP2 POP JUMPDEST PUSH1 0x20 DUP3 LT DUP2 SUB PUSH3 0x192 JUMPI PUSH4 0x4E487B71 PUSH1 0xE0 SHL PUSH1 0x0 MSTORE PUSH1 0x22 PUSH1 0x4 MSTORE PUSH1 0x24 PUSH1 0x0 REVERT JUMPDEST POP SWAP2 SWAP1 POP JUMP JUMPDEST PUSH1 0x1F DUP3 GT ISZERO PUSH3 0x1E6 JUMPI PUSH1 0x0 DUP2 DUP2 MSTORE PUSH1 0x20 DUP2 KECCAK256 PUSH1 0x1F DUP6 ADD PUSH1 0x5 SHR DUP2 ADD PUSH1 0x20 DUP7 LT ISZERO PUSH3 0x1C1 JUMPI POP DUP1 JUMPDEST PUSH1 0x1F DUP6 ADD PUSH1 0x5 SHR DUP3 ADD SWAP2 POP JUMPDEST DUP2 DUP2 LT ISZERO PUSH3 0x1E2 JUMPI DUP3 DUP2 SSTORE PUSH1 0x1 ADD PUSH3 0x1CD JUMP JUMPDEST POP POP POP JUMPDEST POP POP POP JUMP JUMPDEST DUP2 MLOAD PUSH1 0x1 PUSH1 0x1 PUSH1 0x40 SHL SUB DUP2 GT ISZERO PUSH3 0x207 JUMPI PUSH3 0x207 PUSH3 0x71 JUMP JUMPDEST PUSH3 0x21F DUP2 PUSH3 0x218 DUP5 SLOAD PUSH3 0x15C JUMP JUMPDEST DUP5 PUSH3 0x198 JUMP JUMPDEST PUSH1 0x20 DUP1 PUSH1 0x1F DUP4 GT PUSH1 0x1 DUP2 EQ PUSH3 0x257 JUMPI PUSH1 0x0 DUP5 ISZERO PUSH3 0x23E JUMPI POP DUP6 DUP4 ADD MLOAD JUMPDEST PUSH1 0x0 NOT PUSH1 0x3 DUP7 SWAP1 SHL SHR NOT AND PUSH1 0x1 DUP6 SWAP1 SHL OR DUP6 SSTORE PUSH3 0x1E2 JUMP JUMPDEST PUSH1 0x0 DUP6 DUP2 MSTORE PUSH1 0x20 DUP2 KECCAK256 PUSH1 0x1F NOT DUP7 AND SWAP2 JUMPDEST DUP3 DUP2 LT ISZERO PUSH3 0x288 JUMPI DUP9 DUP7 ADD MLOAD DUP3 SSTORE SWAP5 DUP5 ADD SWAP5 PUSH1 0x1 SWAP1 SWAP2 ADD SWAP1 DUP5 ADD PUSH3 0x267 JUMP JUMPDEST POP DUP6 DUP3 LT ISZERO PUSH3 0x2A7 JUMPI DUP8 DUP6 ADD MLOAD PUSH1 0x0 NOT PUSH1 0x3 DUP9 SWAP1 SHL PUSH1 0xF8 AND SHR NOT AND DUP2 SSTORE JUMPDEST POP POP POP POP POP PUSH1 0x1 SWAP1 DUP2 SHL ADD SWAP1 SSTORE POP JUMP JUMPDEST PUSH2 0x1B4D DUP1 PUSH3 0x2C7 PUSH1 0x0 CODECOPY PUSH1 0x0 RETURN INVALID PUSH1 0x80 PUSH1 0x40 MSTORE CALLVALUE DUP1 ISZERO PUSH2 0x10 JUMPI PUSH1 0x0 DUP1 REVERT JUMPDEST POP PUSH1 0x4 CALLDATASIZE LT PUSH2 0x142 JUMPI PUSH1 0x0 CALLDATALOAD PUSH1 0xE0 SHR DUP1 PUSH4 0x6F5CFD82 GT PUSH2 0xB8 JUMPI DUP1 PUSH4 0xA3EC138D GT PUSH2 0x7C JUMPI DUP1 PUSH4 0xA3EC138D EQ PUSH2 0x30B JUMPI DUP1 PUSH4 0xBA05269B EQ PUSH2 0x35E JUMPI DUP1 PUSH4 0xC3403DDF EQ PUSH2 0x371 JUMPI DUP1 PUSH4 0xF225C1F8 EQ PUSH2 0x379 JUMPI DUP1 PUSH4 0xF90CBF2F EQ PUSH2 0x38C JUMPI DUP1 PUSH4 0xF927CC29 EQ PUSH2 0x39F JUMPI PUSH1 0x0 DUP1 REVERT JUMPDEST DUP1 PUSH4 0x6F5CFD82 EQ PUSH2 0x22F JUMPI DUP1 PUSH4 0x711E6EED EQ PUSH2 0x242 JUMPI DUP1 PUSH4 0x8DA5CB5B EQ PUSH2 0x257 JUMPI DUP1 PUSH4 0x9D5A0529 EQ PUSH2 0x282 JUMPI DUP1 PUSH4 0x9ED1F255 EQ PUSH2 0x294 JUMPI PUSH1 0x0 DUP1 REVERT JUMPDEST DUP1 PUSH4 0x3477EE2E GT PUSH2 0x10A JUMPI DUP1 PUSH4 0x3477EE2E EQ PUSH2 0x19E JUMPI DUP1 PUSH4 0x35B8E820 EQ PUSH2 0x1C0 JUMPI DUP1 PUSH4 0x38DB6DD3 EQ PUSH2 0x1D3 JUMPI DUP1 PUSH4 0x408E2727 EQ PUSH2 0x1E6 JUMPI DUP1 PUSH4 0x462E91EC EQ PUSH2 0x203 JUMPI DUP1 PUSH4 0x581C281C EQ PUSH2 0x216 JUMPI PUSH1 0x0 DUP1 REVERT JUMPDEST DUP1 PUSH4 0x121B93F EQ PUSH2 0x147 JUMPI DUP1 PUSH4 0xD15FD77 EQ PUSH2 0x15C JUMPI DUP1 PUSH4 0x1EC6B60A EQ PUSH2 0x178 JUMPI DUP1 PUSH4 0x2D35A8A2 EQ PUSH2 0x180 JUMPI DUP1 PUSH4 0x2E6997FE EQ PUSH2 0x189 JUMPI JUMPDEST PUSH1 0x0 DUP1 REVERT JUMPDEST PUSH2 0x15A PUSH2 0x155 CALLDATASIZE PUSH1 0x4 PUSH2 0x160D JUMP JUMPDEST PUSH2 0x3A7 JUMP JUMPDEST STOP JUMPDEST PUSH2 0x165 PUSH1 0x6 SLOAD DUP2 JUMP JUMPDEST PUSH1 0x40 MLOAD SWAP1 DUP2 MSTORE PUSH1 0x20 ADD JUMPDEST PUSH1 0x40 MLOAD DUP1 SWAP2 SUB SWAP1 RETURN JUMPDEST PUSH2 0x15A PUSH2 0x5AE JUMP JUMPDEST PUSH2 0x165 PUSH1 0x5 SLOAD DUP2 JUMP JUMPDEST PUSH2 0x191 PUSH2 0x71D JUMP JUMPDEST PUSH1 0x40 MLOAD PUSH2 0x16F SWAP2 SWAP1 PUSH2 0x166C JUMP JUMPDEST PUSH2 0x1B1 PUSH2 0x1AC CALLDATASIZE PUSH1 0x4 PUSH2 0x160D JUMP JUMPDEST PUSH2 0x8A6 JUMP JUMPDEST PUSH1 0x40 MLOAD PUSH2 0x16F SWAP4 SWAP3 SWAP2 SWAP1 PUSH2 0x16ED JUMP JUMPDEST PUSH2 0x1B1 PUSH2 0x1CE CALLDATASIZE PUSH1 0x4 PUSH2 0x160D JUMP JUMPDEST PUSH2 0x951 JUMP JUMPDEST PUSH2 0x15A PUSH2 0x1E1 CALLDATASIZE PUSH1 0x4 PUSH2 0x1732 JUMP JUMPDEST PUSH2 0xA89 JUMP JUMPDEST PUSH1 0x2 SLOAD PUSH2 0x1F3 SWAP1 PUSH1 0xFF AND DUP2 JUMP JUMPDEST PUSH1 0x40 MLOAD SWAP1 ISZERO ISZERO DUP2 MSTORE PUSH1 0x20 ADD PUSH2 0x16F JUMP JUMPDEST PUSH2 0x15A PUSH2 0x211 CALLDATASIZE PUSH1 0x4 PUSH2 0x179B JUMP JUMPDEST PUSH2 0xB7C JUMP JUMPDEST PUSH2 0x21E PUSH2 0xD19 JUMP JUMPDEST PUSH1 0x40 MLOAD PUSH2 0x16F SWAP6 SWAP5 SWAP4 SWAP3 SWAP2 SWAP1 PUSH2 0x1830 JUMP JUMPDEST PUSH2 0x15A PUSH2 0x23D CALLDATASIZE PUSH1 0x4 PUSH2 0x179B JUMP JUMPDEST PUSH2 0xDE6 JUMP JUMPDEST PUSH2 0x24A PUSH2 0xF0F JUMP JUMPDEST PUSH1 0x40 MLOAD PUSH2 0x16F SWAP2 SWAP1 PUSH2 0x1867 JUMP JUMPDEST PUSH1 0x0 SLOAD PUSH2 0x26A SWAP1 PUSH1 0x1 PUSH1 0x1 PUSH1 0xA0 SHL SUB AND DUP2 JUMP JUMPDEST PUSH1 0x40 MLOAD PUSH1 0x1 PUSH1 0x1 PUSH1 0xA0 SHL SUB SWAP1 SWAP2 AND DUP2 MSTORE PUSH1 0x20 ADD PUSH2 0x16F JUMP JUMPDEST PUSH1 0x2 SLOAD PUSH2 0x1F3 SWAP1 PUSH2 0x100 SWAP1 DIV PUSH1 0xFF AND DUP2 JUMP JUMPDEST PUSH2 0x2EE PUSH2 0x2A2 CALLDATASIZE PUSH1 0x4 PUSH2 0x1732 JUMP JUMPDEST PUSH1 0x1 PUSH1 0x1 PUSH1 0xA0 SHL SUB AND PUSH1 0x0 SWAP1 DUP2 MSTORE PUSH1 0x4 PUSH1 0x20 SWAP1 DUP2 MSTORE PUSH1 0x40 SWAP2 DUP3 SWAP1 KECCAK256 DUP3 MLOAD PUSH1 0x60 DUP2 ADD DUP5 MSTORE DUP2 SLOAD PUSH1 0xFF SWAP1 DUP2 AND ISZERO ISZERO DUP1 DUP4 MSTORE PUSH1 0x1 DUP5 ADD SLOAD SWAP5 DUP4 ADD DUP6 SWAP1 MSTORE PUSH1 0x2 SWAP1 SWAP4 ADD SLOAD AND ISZERO ISZERO SWAP4 ADD DUP4 SWAP1 MSTORE SWAP2 SWAP3 JUMP JUMPDEST PUSH1 0x40 DUP1 MLOAD SWAP4 ISZERO ISZERO DUP5 MSTORE SWAP2 ISZERO ISZERO PUSH1 0x20 DUP5 ADD MSTORE SWAP1 DUP3 ADD MSTORE PUSH1 0x60 ADD PUSH2 0x16F JUMP JUMPDEST PUSH2 0x33F PUSH2 0x319 CALLDATASIZE PUSH1 0x4 PUSH2 0x1732 JUMP JUMPDEST PUSH1 0x4 PUSH1 0x20 MSTORE PUSH1 0x0 SWAP1 DUP2 MSTORE PUSH1 0x40 SWAP1 KECCAK256 DUP1 SLOAD PUSH1 0x1 DUP3 ADD SLOAD PUSH1 0x2 SWAP1 SWAP3 ADD SLOAD PUSH1 0xFF SWAP2 DUP3 AND SWAP3 SWAP2 AND DUP4 JUMP JUMPDEST PUSH1 0x40 DUP1 MLOAD SWAP4 ISZERO ISZERO DUP5 MSTORE PUSH1 0x20 DUP5 ADD SWAP3 SWAP1 SWAP3 MSTORE ISZERO ISZERO SWAP1 DUP3 ADD MSTORE PUSH1 0x60 ADD PUSH2 0x16F JUMP JUMPDEST PUSH2 0x15A PUSH2 0x36C CALLDATASIZE PUSH1 0x4 PUSH2 0x1732 JUMP JUMPDEST PUSH2 0xF9D JUMP JUMPDEST PUSH2 0x15A PUSH2 0x1057 JUMP JUMPDEST PUSH2 0x15A PUSH2 0x387 CALLDATASIZE PUSH1 0x4 PUSH2 0x187A JUMP JUMPDEST PUSH2 0x115A JUMP JUMPDEST PUSH2 0x15A PUSH2 0x39A CALLDATASIZE PUSH1 0x4 PUSH2 0x187A JUMP JUMPDEST PUSH2 0x1335 JUMP JUMPDEST PUSH2 0x1B1 PUSH2 0x1464 JUMP JUMPDEST PUSH1 0x2 SLOAD PUSH1 0xFF AND DUP1 ISZERO PUSH2 0x3C1 JUMPI POP PUSH1 0x2 SLOAD PUSH2 0x100 SWAP1 DIV PUSH1 0xFF AND ISZERO JUMPDEST PUSH2 0x40C JUMPI PUSH1 0x40 MLOAD PUSH3 0x461BCD PUSH1 0xE5 SHL DUP2 MSTORE PUSH1 0x20 PUSH1 0x4 DUP3 ADD MSTORE PUSH1 0x17 PUSH1 0x24 DUP3 ADD MSTORE PUSH23 0x2632903B37BA32903713B2B9BA103830B99030B1BA34B3 PUSH1 0x49 SHL PUSH1 0x44 DUP3 ADD MSTORE PUSH1 0x64 ADD JUMPDEST PUSH1 0x40 MLOAD DUP1 SWAP2 SUB SWAP1 REVERT JUMPDEST CALLER PUSH1 0x0 SWAP1 DUP2 MSTORE PUSH1 0x4 PUSH1 0x20 MSTORE PUSH1 0x40 SWAP1 KECCAK256 SLOAD PUSH1 0xFF AND ISZERO PUSH2 0x462 JUMPI PUSH1 0x40 MLOAD PUSH3 0x461BCD PUSH1 0xE5 SHL DUP2 MSTORE PUSH1 0x20 PUSH1 0x4 DUP3 ADD MSTORE PUSH1 0x13 PUSH1 0x24 DUP3 ADD MSTORE PUSH19 0x566F7573206176657A2064656A6120766F7465 PUSH1 0x68 SHL PUSH1 0x44 DUP3 ADD MSTORE PUSH1 0x64 ADD PUSH2 0x403 JUMP JUMPDEST CALLER PUSH1 0x0 SWAP1 DUP2 MSTORE PUSH1 0x4 PUSH1 0x20 MSTORE PUSH1 0x40 SWAP1 KECCAK256 PUSH1 0x2 ADD SLOAD PUSH1 0xFF AND PUSH2 0x4D6 JUMPI PUSH1 0x40 MLOAD PUSH3 0x461BCD PUSH1 0xE5 SHL DUP2 MSTORE PUSH1 0x20 PUSH1 0x4 DUP3 ADD MSTORE PUSH1 0x29 PUSH1 0x24 DUP3 ADD MSTORE PUSH32 0x566F7573206E27657465732070617320656E726567697374726520636F6D6D65 PUSH1 0x44 DUP3 ADD MSTORE PUSH9 0x1032B632B1BA32BAB9 PUSH1 0xB9 SHL PUSH1 0x64 DUP3 ADD MSTORE PUSH1 0x84 ADD PUSH2 0x403 JUMP JUMPDEST PUSH1 0x0 DUP2 GT DUP1 ISZERO PUSH2 0x4E8 JUMPI POP PUSH1 0x5 SLOAD DUP2 GT ISZERO JUMPDEST PUSH2 0x528 JUMPI PUSH1 0x40 MLOAD PUSH3 0x461BCD PUSH1 0xE5 SHL DUP2 MSTORE PUSH1 0x20 PUSH1 0x4 DUP3 ADD MSTORE PUSH1 0x11 PUSH1 0x24 DUP3 ADD MSTORE PUSH17 0x43616E646964617420696E76616C696465 PUSH1 0x78 SHL PUSH1 0x44 DUP3 ADD MSTORE PUSH1 0x64 ADD PUSH2 0x403 JUMP JUMPDEST CALLER PUSH1 0x0 SWAP1 DUP2 MSTORE PUSH1 0x4 PUSH1 0x20 SWAP1 DUP2 MSTORE PUSH1 0x40 DUP1 DUP4 KECCAK256 DUP1 SLOAD PUSH1 0xFF NOT AND PUSH1 0x1 SWAP1 DUP2 OR DUP3 SSTORE ADD DUP5 SWAP1 SSTORE DUP4 DUP4 MSTORE PUSH1 0x3 SWAP1 SWAP2 MSTORE DUP2 KECCAK256 PUSH1 0x2 ADD DUP1 SLOAD SWAP2 PUSH2 0x564 DUP4 PUSH2 0x193D JUMP JUMPDEST SWAP1 SWAP2 SSTORE POP POP PUSH1 0x6 DUP1 SLOAD SWAP1 PUSH1 0x0 PUSH2 0x579 DUP4 PUSH2 0x193D JUMP JUMPDEST SWAP1 SWAP2 SSTORE POP POP PUSH1 0x40 MLOAD DUP2 SWAP1 CALLER SWAP1 PUSH32 0xD0E6C39F2E086DC49F1524B47725526A56945CD1FF661F37976F1725A1E56986 SWAP1 PUSH1 0x0 SWAP1 LOG3 POP JUMP JUMPDEST PUSH1 0x0 SLOAD PUSH1 0x1 PUSH1 0x1 PUSH1 0xA0 SHL SUB AND CALLER EQ PUSH2 0x5D8 JUMPI PUSH1 0x40 MLOAD PUSH3 0x461BCD PUSH1 0xE5 SHL DUP2 MSTORE PUSH1 0x4 ADD PUSH2 0x403 SWAP1 PUSH2 0x1956 JUMP JUMPDEST PUSH1 0x0 PUSH1 0x5 SLOAD GT PUSH2 0x646 JUMPI PUSH1 0x40 MLOAD PUSH3 0x461BCD PUSH1 0xE5 SHL DUP2 MSTORE PUSH1 0x20 PUSH1 0x4 DUP3 ADD MSTORE PUSH1 0x33 PUSH1 0x24 DUP3 ADD MSTORE PUSH32 0x496C2066617574206175206D6F696E7320756E2063616E646964617420706F75 PUSH1 0x44 DUP3 ADD MSTORE PUSH19 0x7220636F6D6D656E636572206C6520766F7465 PUSH1 0x68 SHL PUSH1 0x64 DUP3 ADD MSTORE PUSH1 0x84 ADD PUSH2 0x403 JUMP JUMPDEST PUSH1 0x2 SLOAD PUSH1 0xFF AND ISZERO PUSH2 0x692 JUMPI PUSH1 0x40 MLOAD PUSH3 0x461BCD PUSH1 0xE5 SHL DUP2 MSTORE PUSH1 0x20 PUSH1 0x4 DUP3 ADD MSTORE PUSH1 0x16 PUSH1 0x24 DUP3 ADD MSTORE PUSH22 0x2632903B37BA329032B9BA103232B5309030B1BA34B3 PUSH1 0x51 SHL PUSH1 0x44 DUP3 ADD MSTORE PUSH1 0x64 ADD PUSH2 0x403 JUMP JUMPDEST PUSH1 0x2 SLOAD PUSH2 0x100 SWAP1 DIV PUSH1 0xFF AND ISZERO PUSH2 0x6E5 JUMPI PUSH1 0x40 MLOAD PUSH3 0x461BCD PUSH1 0xE5 SHL DUP2 MSTORE PUSH1 0x20 PUSH1 0x4 DUP3 ADD MSTORE PUSH1 0x18 PUSH1 0x24 DUP3 ADD MSTORE PUSH24 0x4C6520766F7465206573742064656A61207465726D696E65 PUSH1 0x40 SHL PUSH1 0x44 DUP3 ADD MSTORE PUSH1 0x64 ADD PUSH2 0x403 JUMP JUMPDEST PUSH1 0x2 DUP1 SLOAD PUSH1 0xFF NOT AND PUSH1 0x1 OR SWAP1 SSTORE PUSH1 0x40 MLOAD PUSH32 0x877E2548498F42B7975A186B94EF1D32C86D420B7B806DD2BE2BEA293B895904 SWAP1 PUSH1 0x0 SWAP1 LOG1 JUMP JUMPDEST PUSH1 0x60 PUSH1 0x0 PUSH1 0x5 SLOAD PUSH8 0xFFFFFFFFFFFFFFFF DUP2 GT ISZERO PUSH2 0x73C JUMPI PUSH2 0x73C PUSH2 0x1754 JUMP JUMPDEST PUSH1 0x40 MLOAD SWAP1 DUP1 DUP3 MSTORE DUP1 PUSH1 0x20 MUL PUSH1 0x20 ADD DUP3 ADD PUSH1 0x40 MSTORE DUP1 ISZERO PUSH2 0x791 JUMPI DUP2 PUSH1 0x20 ADD JUMPDEST PUSH2 0x77E PUSH1 0x40 MLOAD DUP1 PUSH1 0x60 ADD PUSH1 0x40 MSTORE DUP1 PUSH1 0x0 DUP2 MSTORE PUSH1 0x20 ADD PUSH1 0x60 DUP2 MSTORE PUSH1 0x20 ADD PUSH1 0x0 DUP2 MSTORE POP SWAP1 JUMP JUMPDEST DUP2 MSTORE PUSH1 0x20 ADD SWAP1 PUSH1 0x1 SWAP1 SUB SWAP1 DUP2 PUSH2 0x75A JUMPI SWAP1 POP JUMPDEST POP SWAP1 POP PUSH1 0x1 JUMPDEST PUSH1 0x5 SLOAD DUP2 GT PUSH2 0x8A0 JUMPI PUSH1 0x3 PUSH1 0x0 DUP3 DUP2 MSTORE PUSH1 0x20 ADD SWAP1 DUP2 MSTORE PUSH1 0x20 ADD PUSH1 0x0 KECCAK256 PUSH1 0x40 MLOAD DUP1 PUSH1 0x60 ADD PUSH1 0x40 MSTORE SWAP1 DUP2 PUSH1 0x0 DUP3 ADD SLOAD DUP2 MSTORE PUSH1 0x20 ADD PUSH1 0x1 DUP3 ADD DUP1 SLOAD PUSH2 0x7D8 SWAP1 PUSH2 0x19A5 JUMP JUMPDEST DUP1 PUSH1 0x1F ADD PUSH1 0x20 DUP1 SWAP2 DIV MUL PUSH1 0x20 ADD PUSH1 0x40 MLOAD SWAP1 DUP2 ADD PUSH1 0x40 MSTORE DUP1 SWAP3 SWAP2 SWAP1 DUP2 DUP2 MSTORE PUSH1 0x20 ADD DUP3 DUP1 SLOAD PUSH2 0x804 SWAP1 PUSH2 0x19A5 JUMP JUMPDEST DUP1 ISZERO PUSH2 0x851 JUMPI DUP1 PUSH1 0x1F LT PUSH2 0x826 JUMPI PUSH2 0x100 DUP1 DUP4 SLOAD DIV MUL DUP4 MSTORE SWAP2 PUSH1 0x20 ADD SWAP2 PUSH2 0x851 JUMP JUMPDEST DUP3 ADD SWAP2 SWAP1 PUSH1 0x0 MSTORE PUSH1 0x20 PUSH1 0x0 KECCAK256 SWAP1 JUMPDEST DUP2 SLOAD DUP2 MSTORE SWAP1 PUSH1 0x1 ADD SWAP1 PUSH1 0x20 ADD DUP1 DUP4 GT PUSH2 0x834 JUMPI DUP3 SWAP1 SUB PUSH1 0x1F AND DUP3 ADD SWAP2 JUMPDEST POP POP POP POP POP DUP2 MSTORE PUSH1 0x20 ADD PUSH1 0x2 DUP3 ADD SLOAD DUP2 MSTORE POP POP DUP3 PUSH1 0x1 DUP4 PUSH2 0x872 SWAP2 SWAP1 PUSH2 0x19D9 JUMP JUMPDEST DUP2 MLOAD DUP2 LT PUSH2 0x882 JUMPI PUSH2 0x882 PUSH2 0x19F2 JUMP JUMPDEST PUSH1 0x20 MUL PUSH1 0x20 ADD ADD DUP2 SWAP1 MSTORE POP DUP1 DUP1 PUSH2 0x898 SWAP1 PUSH2 0x193D JUMP JUMPDEST SWAP2 POP POP PUSH2 0x797 JUMP JUMPDEST POP SWAP2 SWAP1 POP JUMP JUMPDEST PUSH1 0x3 PUSH1 0x20 MSTORE PUSH1 0x0 SWAP1 DUP2 MSTORE PUSH1 0x40 SWAP1 KECCAK256 DUP1 SLOAD PUSH1 0x1 DUP3 ADD DUP1 SLOAD SWAP2 SWAP3 SWAP2 PUSH2 0x8C8 SWAP1 PUSH2 0x19A5 JUMP JUMPDEST DUP1 PUSH1 0x1F ADD PUSH1 0x20 DUP1 SWAP2 DIV MUL PUSH1 0x20 ADD PUSH1 0x40 MLOAD SWAP1 DUP2 ADD PUSH1 0x40 MSTORE DUP1 SWAP3 SWAP2 SWAP1 DUP2 DUP2 MSTORE PUSH1 0x20 ADD DUP3 DUP1 SLOAD PUSH2 0x8F4 SWAP1 PUSH2 0x19A5 JUMP JUMPDEST DUP1 ISZERO PUSH2 0x941 JUMPI DUP1 PUSH1 0x1F LT PUSH2 0x916 JUMPI PUSH2 0x100 DUP1 DUP4 SLOAD DIV MUL DUP4 MSTORE SWAP2 PUSH1 0x20 ADD SWAP2 PUSH2 0x941 JUMP JUMPDEST DUP3 ADD SWAP2 SWAP1 PUSH1 0x0 MSTORE PUSH1 0x20 PUSH1 0x0 KECCAK256 SWAP1 JUMPDEST DUP2 SLOAD DUP2 MSTORE SWAP1 PUSH1 0x1 ADD SWAP1 PUSH1 0x20 ADD DUP1 DUP4 GT PUSH2 0x924 JUMPI DUP3 SWAP1 SUB PUSH1 0x1F AND DUP3 ADD SWAP2 JUMPDEST POP POP POP POP POP SWAP1 DUP1 PUSH1 0x2 ADD SLOAD SWAP1 POP DUP4 JUMP JUMPDEST PUSH1 0x0 PUSH1 0x60 PUSH1 0x0 DUP1 DUP5 GT DUP1 ISZERO PUSH2 0x968 JUMPI POP PUSH1 0x5 SLOAD DUP5 GT ISZERO JUMPDEST PUSH2 0x9A8 JUMPI PUSH1 0x40 MLOAD PUSH3 0x461BCD PUSH1 0xE5 SHL DUP2 MSTORE PUSH1 0x20 PUSH1 0x4 DUP3 ADD MSTORE PUSH1 0x11 PUSH1 0x24 DUP3 ADD MSTORE PUSH17 0x43616E646964617420696E76616C696465 PUSH1 0x78 SHL PUSH1 0x44 DUP3 ADD MSTORE PUSH1 0x64 ADD PUSH2 0x403 JUMP JUMPDEST PUSH1 0x0 PUSH1 0x3 PUSH1 0x0 DUP7 DUP2 MSTORE PUSH1 0x20 ADD SWAP1 DUP2 MSTORE PUSH1 0x20 ADD PUSH1 0x0 KECCAK256 PUSH1 0x40 MLOAD DUP1 PUSH1 0x60 ADD PUSH1 0x40 MSTORE SWAP1 DUP2 PUSH1 0x0 DUP3 ADD SLOAD DUP2 MSTORE PUSH1 0x20 ADD PUSH1 0x1 DUP3 ADD DUP1 SLOAD PUSH2 0x9E2 SWAP1 PUSH2 0x19A5 JUMP JUMPDEST DUP1 PUSH1 0x1F ADD PUSH1 0x20 DUP1 SWAP2 DIV MUL PUSH1 0x20 ADD PUSH1 0x40 MLOAD SWAP1 DUP2 ADD PUSH1 0x40 MSTORE DUP1 SWAP3 SWAP2 SWAP1 DUP2 DUP2 MSTORE PUSH1 0x20 ADD DUP3 DUP1 SLOAD PUSH2 0xA0E SWAP1 PUSH2 0x19A5 JUMP JUMPDEST DUP1 ISZERO PUSH2 0xA5B JUMPI DUP1 PUSH1 0x1F LT PUSH2 0xA30 JUMPI PUSH2 0x100 DUP1 DUP4 SLOAD DIV MUL DUP4 MSTORE SWAP2 PUSH1 0x20 ADD SWAP2 PUSH2 0xA5B JUMP JUMPDEST DUP3 ADD SWAP2 SWAP1 PUSH1 0x0 MSTORE PUSH1 0x20 PUSH1 0x0 KECCAK256 SWAP1 JUMPDEST DUP2 SLOAD DUP2 MSTORE SWAP1 PUSH1 0x1 ADD SWAP1 PUSH1 0x20 ADD DUP1 DUP4 GT PUSH2 0xA3E JUMPI DUP3 SWAP1 SUB PUSH1 0x1F AND DUP3 ADD SWAP2 JUMPDEST POP POP POP SWAP2 DUP4 MSTORE POP POP PUSH1 0x2 SWAP2 SWAP1 SWAP2 ADD SLOAD PUSH1 0x20 SWAP2 DUP3 ADD MSTORE DUP2 MLOAD SWAP1 DUP3 ADD MLOAD PUSH1 0x40 SWAP1 SWAP3 ADD MLOAD SWAP1 SWAP8 SWAP2 SWAP7 POP SWAP5 POP SWAP3 POP POP POP JUMP JUMPDEST PUSH1 0x0 SLOAD PUSH1 0x1 PUSH1 0x1 PUSH1 0xA0 SHL SUB AND CALLER EQ PUSH2 0xAB3 JUMPI PUSH1 0x40 MLOAD PUSH3 0x461BCD PUSH1 0xE5 SHL DUP2 MSTORE PUSH1 0x4 ADD PUSH2 0x403 SWAP1 PUSH2 0x1956 JUMP JUMPDEST PUSH1 0x1 PUSH1 0x1 PUSH1 0xA0 SHL SUB DUP2 AND PUSH1 0x0 SWAP1 DUP2 MSTORE PUSH1 0x4 PUSH1 0x20 MSTORE PUSH1 0x40 SWAP1 KECCAK256 PUSH1 0x2 ADD SLOAD PUSH1 0xFF AND ISZERO PUSH2 0xB1F JUMPI PUSH1 0x40 MLOAD PUSH3 0x461BCD PUSH1 0xE5 SHL DUP2 MSTORE PUSH1 0x20 PUSH1 0x4 DUP3 ADD DUP2 SWAP1 MSTORE PUSH1 0x24 DUP3 ADD MSTORE PUSH32 0x43657420656C656374657572206573742064656A6120656E7265676973747265 PUSH1 0x44 DUP3 ADD MSTORE PUSH1 0x64 ADD PUSH2 0x403 JUMP JUMPDEST PUSH1 0x1 PUSH1 0x1 PUSH1 0xA0 SHL SUB DUP2 AND PUSH1 0x0 DUP2 DUP2 MSTORE PUSH1 0x4 PUSH1 0x20 MSTORE PUSH1 0x40 DUP1 DUP3 KECCAK256 PUSH1 0x2 DUP2 ADD DUP1 SLOAD PUSH1 0x1 PUSH1 0xFF NOT SWAP2 DUP3 AND DUP2 OR SWAP1 SWAP3 SSTORE DUP3 SLOAD AND DUP3 SSTORE ADD DUP3 SWAP1 SSTORE MLOAD PUSH32 0xB6BE2187D059CC2A55FE29E0E503B566E1E0F8C8780096E185429350ACFFD3DD SWAP2 SWAP1 LOG2 POP JUMP JUMPDEST PUSH1 0x0 SLOAD PUSH1 0x1 PUSH1 0x1 PUSH1 0xA0 SHL SUB AND CALLER EQ PUSH2 0xBA6 JUMPI PUSH1 0x40 MLOAD PUSH3 0x461BCD PUSH1 0xE5 SHL DUP2 MSTORE PUSH1 0x4 ADD PUSH2 0x403 SWAP1 PUSH2 0x1956 JUMP JUMPDEST PUSH1 0x2 SLOAD PUSH1 0xFF AND ISZERO PUSH2 0xC14 JUMPI PUSH1 0x40 MLOAD PUSH3 0x461BCD PUSH1 0xE5 SHL DUP2 MSTORE PUSH1 0x20 PUSH1 0x4 DUP3 ADD MSTORE PUSH1 0x32 PUSH1 0x24 DUP3 ADD MSTORE PUSH32 0x496D706F737369626C65206427616A6F75746572206465732063616E64696461 PUSH1 0x44 DUP3 ADD MSTORE PUSH18 0x74732070656E64616E74206C6520766F7465 PUSH1 0x70 SHL PUSH1 0x64 DUP3 ADD MSTORE PUSH1 0x84 ADD PUSH2 0x403 JUMP JUMPDEST PUSH1 0x0 DUP2 MLOAD GT PUSH2 0xC76 JUMPI PUSH1 0x40 MLOAD PUSH3 0x461BCD PUSH1 0xE5 SHL DUP2 MSTORE PUSH1 0x20 PUSH1 0x4 DUP3 ADD MSTORE PUSH1 0x28 PUSH1 0x24 DUP3 ADD MSTORE PUSH32 0x4C65206E6F6D2064752063616E6469646174206E652070657574207061732065 PUSH1 0x44 DUP3 ADD MSTORE PUSH8 0x7472652076696465 PUSH1 0xC0 SHL PUSH1 0x64 DUP3 ADD MSTORE PUSH1 0x84 ADD PUSH2 0x403 JUMP JUMPDEST PUSH1 0x5 DUP1 SLOAD SWAP1 PUSH1 0x0 PUSH2 0xC86 DUP4 PUSH2 0x193D JUMP JUMPDEST SWAP1 SWAP2 SSTORE POP POP PUSH1 0x40 DUP1 MLOAD PUSH1 0x60 DUP2 ADD DUP3 MSTORE PUSH1 0x5 SLOAD DUP1 DUP3 MSTORE PUSH1 0x20 DUP1 DUP4 ADD DUP6 DUP2 MSTORE PUSH1 0x0 DUP5 DUP7 ADD DUP2 SWAP1 MSTORE SWAP3 DUP4 MSTORE PUSH1 0x3 SWAP1 SWAP2 MSTORE SWAP3 SWAP1 KECCAK256 DUP2 MLOAD DUP2 SSTORE SWAP2 MLOAD SWAP1 SWAP2 SWAP1 PUSH1 0x1 DUP3 ADD SWAP1 PUSH2 0xCCE SWAP1 DUP3 PUSH2 0x1A57 JUMP JUMPDEST POP PUSH1 0x40 DUP3 ADD MLOAD DUP2 PUSH1 0x2 ADD SSTORE SWAP1 POP POP PUSH1 0x5 SLOAD PUSH32 0xE83B2A43E7E82D975C8A0A6D2F045153C869E111136A34D1889AB7B598E396A3 DUP3 PUSH1 0x40 MLOAD PUSH2 0xD0E SWAP2 SWAP1 PUSH2 0x1867 JUMP JUMPDEST PUSH1 0x40 MLOAD DUP1 SWAP2 SUB SWAP1 LOG2 POP JUMP JUMPDEST PUSH1 0x60 PUSH1 0x0 DUP1 PUSH1 0x0 DUP1 PUSH1 0x1 PUSH1 0x2 PUSH1 0x0 SWAP1 SLOAD SWAP1 PUSH2 0x100 EXP SWAP1 DIV PUSH1 0xFF AND PUSH1 0x2 PUSH1 0x1 SWAP1 SLOAD SWAP1 PUSH2 0x100 EXP SWAP1 DIV PUSH1 0xFF AND PUSH1 0x5 SLOAD PUSH1 0x6 SLOAD DUP5 DUP1 SLOAD PUSH2 0xD55 SWAP1 PUSH2 0x19A5 JUMP JUMPDEST DUP1 PUSH1 0x1F ADD PUSH1 0x20 DUP1 SWAP2 DIV MUL PUSH1 0x20 ADD PUSH1 0x40 MLOAD SWAP1 DUP2 ADD PUSH1 0x40 MSTORE DUP1 SWAP3 SWAP2 SWAP1 DUP2 DUP2 MSTORE PUSH1 0x20 ADD DUP3 DUP1 SLOAD PUSH2 0xD81 SWAP1 PUSH2 0x19A5 JUMP JUMPDEST DUP1 ISZERO PUSH2 0xDCE JUMPI DUP1 PUSH1 0x1F LT PUSH2 0xDA3 JUMPI PUSH2 0x100 DUP1 DUP4 SLOAD DIV MUL DUP4 MSTORE SWAP2 PUSH1 0x20 ADD SWAP2 PUSH2 0xDCE JUMP JUMPDEST DUP3 ADD SWAP2 SWAP1 PUSH1 0x0 MSTORE PUSH1 0x20 PUSH1 0x0 KECCAK256 SWAP1 JUMPDEST DUP2 SLOAD DUP2 MSTORE SWAP1 PUSH1 0x1 ADD SWAP1 PUSH1 0x20 ADD DUP1 DUP4 GT PUSH2 0xDB1 JUMPI DUP3 SWAP1 SUB PUSH1 0x1F AND DUP3 ADD SWAP2 JUMPDEST POP POP POP POP POP SWAP5 POP SWAP5 POP SWAP5 POP SWAP5 POP SWAP5 POP SWAP5 POP SWAP1 SWAP2 SWAP3 SWAP4 SWAP5 JUMP JUMPDEST PUSH1 0x0 SLOAD PUSH1 0x1 PUSH1 0x1 PUSH1 0xA0 SHL SUB AND CALLER EQ PUSH2 0xE10 JUMPI PUSH1 0x40 MLOAD PUSH3 0x461BCD PUSH1 0xE5 SHL DUP2 MSTORE PUSH1 0x4 ADD PUSH2 0x403 SWAP1 PUSH2 0x1956 JUMP JUMPDEST PUSH1 0x2 SLOAD PUSH2 0x100 SWAP1 DIV PUSH1 0xFF AND PUSH2 0xE8D JUMPI PUSH1 0x40 MLOAD PUSH3 0x461BCD PUSH1 0xE5 SHL DUP2 MSTORE PUSH1 0x20 PUSH1 0x4 DUP3 ADD MSTORE PUSH1 0x3B PUSH1 0x24 DUP3 ADD MSTORE PUSH32 0x4C6520766F746520646F69742065747265207465726D696E65206176616E7420 PUSH1 0x44 DUP3 ADD MSTORE PUSH32 0x646520706F75766F6972206C65207265696E697469616C697365720000000000 PUSH1 0x64 DUP3 ADD MSTORE PUSH1 0x84 ADD PUSH2 0x403 JUMP JUMPDEST PUSH1 0x2 DUP1 SLOAD PUSH2 0xFFFF NOT AND SWAP1 SSTORE PUSH1 0x0 PUSH1 0x6 SSTORE DUP1 MLOAD ISZERO PUSH2 0xEB2 JUMPI PUSH1 0x1 PUSH2 0xEB0 DUP3 DUP3 PUSH2 0x1A57 JUMP JUMPDEST POP JUMPDEST PUSH1 0x1 JUMPDEST PUSH1 0x5 SLOAD DUP2 GT PUSH2 0xEE2 JUMPI PUSH1 0x0 DUP2 DUP2 MSTORE PUSH1 0x3 PUSH1 0x20 MSTORE PUSH1 0x40 DUP2 KECCAK256 PUSH1 0x2 ADD SSTORE DUP1 PUSH2 0xEDA DUP2 PUSH2 0x193D JUMP JUMPDEST SWAP2 POP POP PUSH2 0xEB5 JUMP JUMPDEST POP PUSH1 0x40 MLOAD PUSH32 0xEB4B0A76799CB305AE86D5A0B30E0E77B1E23FA8CB85EB788EDE212BD6B324A6 SWAP1 PUSH1 0x0 SWAP1 LOG1 POP JUMP JUMPDEST PUSH1 0x1 DUP1 SLOAD PUSH2 0xF1C SWAP1 PUSH2 0x19A5 JUMP JUMPDEST DUP1 PUSH1 0x1F ADD PUSH1 0x20 DUP1 SWAP2 DIV MUL PUSH1 0x20 ADD PUSH1 0x40 MLOAD SWAP1 DUP2 ADD PUSH1 0x40 MSTORE DUP1 SWAP3 SWAP2 SWAP1 DUP2 DUP2 MSTORE PUSH1 0x20 ADD DUP3 DUP1 SLOAD PUSH2 0xF48 SWAP1 PUSH2 0x19A5 JUMP JUMPDEST DUP1 ISZERO PUSH2 0xF95 JUMPI DUP1 PUSH1 0x1F LT PUSH2 0xF6A JUMPI PUSH2 0x100 DUP1 DUP4 SLOAD DIV MUL DUP4 MSTORE SWAP2 PUSH1 0x20 ADD SWAP2 PUSH2 0xF95 JUMP JUMPDEST DUP3 ADD SWAP2 SWAP1 PUSH1 0x0 MSTORE PUSH1 0x20 PUSH1 0x0 KECCAK256 SWAP1 JUMPDEST DUP2 SLOAD DUP2 MSTORE SWAP1 PUSH1 0x1 ADD SWAP1 PUSH1 0x20 ADD DUP1 DUP4 GT PUSH2 0xF78 JUMPI DUP3 SWAP1 SUB PUSH1 0x1F AND DUP3 ADD SWAP2 JUMPDEST POP POP POP POP POP DUP2 JUMP JUMPDEST PUSH1 0x0 SLOAD PUSH1 0x1 PUSH1 0x1 PUSH1 0xA0 SHL SUB AND CALLER EQ PUSH2 0xFC7 JUMPI PUSH1 0x40 MLOAD PUSH3 0x461BCD PUSH1 0xE5 SHL DUP2 MSTORE PUSH1 0x4 ADD PUSH2 0x403 SWAP1 PUSH2 0x1956 JUMP JUMPDEST PUSH1 0x1 PUSH1 0x1 PUSH1 0xA0 SHL SUB DUP2 AND PUSH1 0x0 SWAP1 DUP2 MSTORE PUSH1 0x4 PUSH1 0x20 MSTORE PUSH1 0x40 SWAP1 KECCAK256 PUSH1 0x2 ADD SLOAD PUSH1 0xFF AND PUSH2 0x1032 JUMPI PUSH1 0x40 MLOAD PUSH3 0x461BCD PUSH1 0xE5 SHL DUP2 MSTORE PUSH1 0x20 PUSH1 0x4 DUP3 ADD MSTORE PUSH1 0x1F PUSH1 0x24 DUP3 ADD MSTORE PUSH32 0x4C27656C656374657572206E276573742070617320656E726567697374726500 PUSH1 0x44 DUP3 ADD MSTORE PUSH1 0x64 ADD PUSH2 0x403 JUMP JUMPDEST PUSH1 0x1 PUSH1 0x1 PUSH1 0xA0 SHL SUB AND PUSH1 0x0 SWAP1 DUP2 MSTORE PUSH1 0x4 PUSH1 0x20 MSTORE PUSH1 0x40 DUP2 KECCAK256 DUP1 SLOAD PUSH1 0xFF NOT AND DUP2 SSTORE PUSH1 0x1 ADD SSTORE JUMP JUMPDEST PUSH1 0x0 SLOAD PUSH1 0x1 PUSH1 0x1 PUSH1 0xA0 SHL SUB AND CALLER EQ PUSH2 0x1081 JUMPI PUSH1 0x40 MLOAD PUSH3 0x461BCD PUSH1 0xE5 SHL DUP2 MSTORE PUSH1 0x4 ADD PUSH2 0x403 SWAP1 PUSH2 0x1956 JUMP JUMPDEST PUSH1 0x2 SLOAD PUSH1 0xFF AND PUSH2 0x10CD JUMPI PUSH1 0x40 MLOAD PUSH3 0x461BCD PUSH1 0xE5 SHL DUP2 MSTORE PUSH1 0x20 PUSH1 0x4 DUP3 ADD MSTORE PUSH1 0x17 PUSH1 0x24 DUP3 ADD MSTORE PUSH23 0x2632903B37BA32903713B2B9BA103830B99030B1BA34B3 PUSH1 0x49 SHL PUSH1 0x44 DUP3 ADD MSTORE PUSH1 0x64 ADD PUSH2 0x403 JUMP JUMPDEST PUSH1 0x2 SLOAD PUSH2 0x100 SWAP1 DIV PUSH1 0xFF AND ISZERO PUSH2 0x1120 JUMPI PUSH1 0x40 MLOAD PUSH3 0x461BCD PUSH1 0xE5 SHL DUP2 MSTORE PUSH1 0x20 PUSH1 0x4 DUP3 ADD MSTORE PUSH1 0x18 PUSH1 0x24 DUP3 ADD MSTORE PUSH24 0x4C6520766F7465206573742064656A61207465726D696E65 PUSH1 0x40 SHL PUSH1 0x44 DUP3 ADD MSTORE PUSH1 0x64 ADD PUSH2 0x403 JUMP JUMPDEST PUSH1 0x2 DUP1 SLOAD PUSH2 0xFFFF NOT AND PUSH2 0x100 OR SWAP1 SSTORE PUSH1 0x40 MLOAD PUSH32 0x7A19ED057DB79E3C2FA0B97A54B43BEF4FCE74B31BB6C01AF514B9A18A7F70AB SWAP1 PUSH1 0x0 SWAP1 LOG1 JUMP JUMPDEST PUSH1 0x0 SLOAD PUSH1 0x1 PUSH1 0x1 PUSH1 0xA0 SHL SUB AND CALLER EQ PUSH2 0x1184 JUMPI PUSH1 0x40 MLOAD PUSH3 0x461BCD PUSH1 0xE5 SHL DUP2 MSTORE PUSH1 0x4 ADD PUSH2 0x403 SWAP1 PUSH2 0x1956 JUMP JUMPDEST PUSH1 0x0 JUMPDEST DUP2 MLOAD DUP2 LT ISZERO PUSH2 0x1331 JUMPI PUSH1 0x4 PUSH1 0x0 DUP4 DUP4 DUP2 MLOAD DUP2 LT PUSH2 0x11A6 JUMPI PUSH2 0x11A6 PUSH2 0x19F2 JUMP JUMPDEST PUSH1 0x20 SWAP1 DUP2 MUL SWAP2 SWAP1 SWAP2 ADD DUP2 ADD MLOAD PUSH1 0x1 PUSH1 0x1 PUSH1 0xA0 SHL SUB AND DUP3 MSTORE DUP2 ADD SWAP2 SWAP1 SWAP2 MSTORE PUSH1 0x40 ADD PUSH1 0x0 KECCAK256 PUSH1 0x2 ADD SLOAD PUSH1 0xFF AND PUSH2 0x131F JUMPI PUSH1 0x1 PUSH1 0x4 PUSH1 0x0 DUP5 DUP5 DUP2 MLOAD DUP2 LT PUSH2 0x11EC JUMPI PUSH2 0x11EC PUSH2 0x19F2 JUMP JUMPDEST PUSH1 0x20 MUL PUSH1 0x20 ADD ADD MLOAD PUSH1 0x1 PUSH1 0x1 PUSH1 0xA0 SHL SUB AND PUSH1 0x1 PUSH1 0x1 PUSH1 0xA0 SHL SUB AND DUP2 MSTORE PUSH1 0x20 ADD SWAP1 DUP2 MSTORE PUSH1 0x20 ADD PUSH1 0x0 KECCAK256 PUSH1 0x2 ADD PUSH1 0x0 PUSH2 0x100 EXP DUP2 SLOAD DUP2 PUSH1 0xFF MUL NOT AND SWAP1 DUP4 ISZERO ISZERO MUL OR SWAP1 SSTORE POP PUSH1 0x0 PUSH1 0x4 PUSH1 0x0 DUP5 DUP5 DUP2 MLOAD DUP2 LT PUSH2 0x1246 JUMPI PUSH2 0x1246 PUSH2 0x19F2 JUMP JUMPDEST PUSH1 0x20 MUL PUSH1 0x20 ADD ADD MLOAD PUSH1 0x1 PUSH1 0x1 PUSH1 0xA0 SHL SUB AND PUSH1 0x1 PUSH1 0x1 PUSH1 0xA0 SHL SUB AND DUP2 MSTORE PUSH1 0x20 ADD SWAP1 DUP2 MSTORE PUSH1 0x20 ADD PUSH1 0x0 KECCAK256 PUSH1 0x0 ADD PUSH1 0x0 PUSH2 0x100 EXP DUP2 SLOAD DUP2 PUSH1 0xFF MUL NOT AND SWAP1 DUP4 ISZERO ISZERO MUL OR SWAP1 SSTORE POP PUSH1 0x0 PUSH1 0x4 PUSH1 0x0 DUP5 DUP5 DUP2 MLOAD DUP2 LT PUSH2 0x12A0 JUMPI PUSH2 0x12A0 PUSH2 0x19F2 JUMP JUMPDEST PUSH1 0x20 MUL PUSH1 0x20 ADD ADD MLOAD PUSH1 0x1 PUSH1 0x1 PUSH1 0xA0 SHL SUB AND PUSH1 0x1 PUSH1 0x1 PUSH1 0xA0 SHL SUB AND DUP2 MSTORE PUSH1 0x20 ADD SWAP1 DUP2 MSTORE PUSH1 0x20 ADD PUSH1 0x0 KECCAK256 PUSH1 0x1 ADD DUP2 SWAP1 SSTORE POP DUP2 DUP2 DUP2 MLOAD DUP2 LT PUSH2 0x12E1 JUMPI PUSH2 0x12E1 PUSH2 0x19F2 JUMP JUMPDEST PUSH1 0x20 MUL PUSH1 0x20 ADD ADD MLOAD PUSH1 0x1 PUSH1 0x1 PUSH1 0xA0 SHL SUB AND PUSH32 0xB6BE2187D059CC2A55FE29E0E503B566E1E0F8C8780096E185429350ACFFD3DD PUSH1 0x40 MLOAD PUSH1 0x40 MLOAD DUP1 SWAP2 SUB SWAP1 LOG2 JUMPDEST DUP1 PUSH2 0x1329 DUP2 PUSH2 0x193D JUMP JUMPDEST SWAP2 POP POP PUSH2 0x1187 JUMP JUMPDEST POP POP JUMP JUMPDEST PUSH1 0x0 SLOAD PUSH1 0x1 PUSH1 0x1 PUSH1 0xA0 SHL SUB AND CALLER EQ PUSH2 0x135F JUMPI PUSH1 0x40 MLOAD PUSH3 0x461BCD PUSH1 0xE5 SHL DUP2 MSTORE PUSH1 0x4 ADD PUSH2 0x403 SWAP1 PUSH2 0x1956 JUMP JUMPDEST PUSH1 0x0 JUMPDEST DUP2 MLOAD DUP2 LT ISZERO PUSH2 0x1331 JUMPI PUSH1 0x4 PUSH1 0x0 DUP4 DUP4 DUP2 MLOAD DUP2 LT PUSH2 0x1381 JUMPI PUSH2 0x1381 PUSH2 0x19F2 JUMP JUMPDEST PUSH1 0x20 SWAP1 DUP2 MUL SWAP2 SWAP1 SWAP2 ADD DUP2 ADD MLOAD PUSH1 0x1 PUSH1 0x1 PUSH1 0xA0 SHL SUB AND DUP3 MSTORE DUP2 ADD SWAP2 SWAP1 SWAP2 MSTORE PUSH1 0x40 ADD PUSH1 0x0 KECCAK256 PUSH1 0x2 ADD SLOAD PUSH1 0xFF AND ISZERO PUSH2 0x1452 JUMPI PUSH1 0x0 PUSH1 0x4 PUSH1 0x0 DUP5 DUP5 DUP2 MLOAD DUP2 LT PUSH2 0x13C8 JUMPI PUSH2 0x13C8 PUSH2 0x19F2 JUMP JUMPDEST PUSH1 0x20 MUL PUSH1 0x20 ADD ADD MLOAD PUSH1 0x1 PUSH1 0x1 PUSH1 0xA0 SHL SUB AND PUSH1 0x1 PUSH1 0x1 PUSH1 0xA0 SHL SUB AND DUP2 MSTORE PUSH1 0x20 ADD SWAP1 DUP2 MSTORE PUSH1 0x20 ADD PUSH1 0x0 KECCAK256 PUSH1 0x0 ADD PUSH1 0x0 PUSH2 0x100 EXP DUP2 SLOAD DUP2 PUSH1 0xFF MUL NOT AND SWAP1 DUP4 ISZERO ISZERO MUL OR SWAP1 SSTORE POP PUSH1 0x0 PUSH1 0x4 PUSH1 0x0 DUP5 DUP5 DUP2 MLOAD DUP2 LT PUSH2 0x1422 JUMPI PUSH2 0x1422 PUSH2 0x19F2 JUMP JUMPDEST PUSH1 0x20 MUL PUSH1 0x20 ADD ADD MLOAD PUSH1 0x1 PUSH1 0x1 PUSH1 0xA0 SHL SUB AND PUSH1 0x1 PUSH1 0x1 PUSH1 0xA0 SHL SUB AND DUP2 MSTORE PUSH1 0x20 ADD SWAP1 DUP2 MSTORE PUSH1 0x20 ADD PUSH1 0x0 KECCAK256 PUSH1 0x1 ADD DUP2 SWAP1 SSTORE POP JUMPDEST DUP1 PUSH2 0x145C DUP2 PUSH2 0x193D JUMP JUMPDEST SWAP2 POP POP PUSH2 0x1362 JUMP JUMPDEST PUSH1 0x0 PUSH1 0x60 PUSH1 0x0 PUSH1 0x2 PUSH1 0x1 SWAP1 SLOAD SWAP1 PUSH2 0x100 EXP SWAP1 DIV PUSH1 0xFF AND PUSH2 0x14C6 JUMPI PUSH1 0x40 MLOAD PUSH3 0x461BCD PUSH1 0xE5 SHL DUP2 MSTORE PUSH1 0x20 PUSH1 0x4 DUP3 ADD DUP2 SWAP1 MSTORE PUSH1 0x24 DUP3 ADD MSTORE PUSH32 0x4C6520766F7465206E276573742070617320656E636F7265207465726D696E65 PUSH1 0x44 DUP3 ADD MSTORE PUSH1 0x64 ADD PUSH2 0x403 JUMP JUMPDEST PUSH1 0x0 PUSH1 0x5 SLOAD GT PUSH2 0x1509 JUMPI PUSH1 0x40 MLOAD PUSH3 0x461BCD PUSH1 0xE5 SHL DUP2 MSTORE PUSH1 0x20 PUSH1 0x4 DUP3 ADD MSTORE PUSH1 0xE PUSH1 0x24 DUP3 ADD MSTORE PUSH14 0x105D58DD5B8818D85B991A59185D PUSH1 0x92 SHL PUSH1 0x44 DUP3 ADD MSTORE PUSH1 0x64 ADD PUSH2 0x403 JUMP JUMPDEST PUSH1 0x0 DUP1 PUSH1 0x1 JUMPDEST PUSH1 0x5 SLOAD DUP2 GT PUSH2 0x155B JUMPI PUSH1 0x0 DUP2 DUP2 MSTORE PUSH1 0x3 PUSH1 0x20 MSTORE PUSH1 0x40 SWAP1 KECCAK256 PUSH1 0x2 ADD SLOAD DUP4 LT ISZERO PUSH2 0x1549 JUMPI PUSH1 0x0 DUP2 DUP2 MSTORE PUSH1 0x3 PUSH1 0x20 MSTORE PUSH1 0x40 SWAP1 KECCAK256 PUSH1 0x2 ADD SLOAD SWAP3 POP SWAP1 POP DUP1 JUMPDEST DUP1 PUSH2 0x1553 DUP2 PUSH2 0x193D JUMP JUMPDEST SWAP2 POP POP PUSH2 0x150F JUMP JUMPDEST POP DUP1 PUSH1 0x3 PUSH1 0x0 DUP4 DUP2 MSTORE PUSH1 0x20 ADD SWAP1 DUP2 MSTORE PUSH1 0x20 ADD PUSH1 0x0 KECCAK256 PUSH1 0x1 ADD DUP4 DUP2 DUP1 SLOAD PUSH2 0x1580 SWAP1 PUSH2 0x19A5 JUMP JUMPDEST DUP1 PUSH1 0x1F ADD PUSH1 0x20 DUP1 SWAP2 DIV MUL PUSH1 0x20 ADD PUSH1 0x40 MLOAD SWAP1 DUP2 ADD PUSH1 0x40 MSTORE DUP1 SWAP3 SWAP2 SWAP1 DUP2 DUP2 MSTORE PUSH1 0x20 ADD DUP3 DUP1 SLOAD PUSH2 0x15AC SWAP1 PUSH2 0x19A5 JUMP JUMPDEST DUP1 ISZERO PUSH2 0x15F9 JUMPI DUP1 PUSH1 0x1F LT PUSH2 0x15CE JUMPI PUSH2 0x100 DUP1 DUP4 SLOAD DIV MUL DUP4 MSTORE SWAP2 PUSH1 0x20 ADD SWAP2 PUSH2 0x15F9 JUMP JUMPDEST DUP3 ADD SWAP2 SWAP1 PUSH1 0x0 MSTORE PUSH1 0x20 PUSH1 0x0 KECCAK256 SWAP1 JUMPDEST DUP2 SLOAD DUP2 MSTORE SWAP1 PUSH1 0x1 ADD SWAP1 PUSH1 0x20 ADD DUP1 DUP4 GT PUSH2 0x15DC JUMPI DUP3 SWAP1 SUB PUSH1 0x1F AND DUP3 ADD SWAP2 JUMPDEST POP POP POP POP POP SWAP2 POP SWAP5 POP SWAP5 POP SWAP5 POP POP POP SWAP1 SWAP2 SWAP3 JUMP JUMPDEST PUSH1 0x0 PUSH1 0x20 DUP3 DUP5 SUB SLT ISZERO PUSH2 0x161F JUMPI PUSH1 0x0 DUP1 REVERT JUMPDEST POP CALLDATALOAD SWAP2 SWAP1 POP JUMP JUMPDEST PUSH1 0x0 DUP2 MLOAD DUP1 DUP5 MSTORE PUSH1 0x0 JUMPDEST DUP2 DUP2 LT ISZERO PUSH2 0x164C JUMPI PUSH1 0x20 DUP2 DUP6 ADD DUP2 ADD MLOAD DUP7 DUP4 ADD DUP3 ADD MSTORE ADD PUSH2 0x1630 JUMP JUMPDEST POP PUSH1 0x0 PUSH1 0x20 DUP3 DUP7 ADD ADD MSTORE PUSH1 0x20 PUSH1 0x1F NOT PUSH1 0x1F DUP4 ADD AND DUP6 ADD ADD SWAP2 POP POP SWAP3 SWAP2 POP POP JUMP JUMPDEST PUSH1 0x0 PUSH1 0x20 DUP1 DUP4 ADD DUP2 DUP5 MSTORE DUP1 DUP6 MLOAD DUP1 DUP4 MSTORE PUSH1 0x40 SWAP3 POP DUP3 DUP7 ADD SWAP2 POP DUP3 DUP2 PUSH1 0x5 SHL DUP8 ADD ADD DUP5 DUP9 ADD PUSH1 0x0 JUMPDEST DUP4 DUP2 LT ISZERO PUSH2 0x16DF JUMPI PUSH1 0x3F NOT DUP10 DUP5 SUB ADD DUP6 MSTORE DUP2 MLOAD PUSH1 0x60 DUP2 MLOAD DUP6 MSTORE DUP9 DUP3 ADD MLOAD DUP2 DUP11 DUP8 ADD MSTORE PUSH2 0x16C1 DUP3 DUP8 ADD DUP3 PUSH2 0x1626 JUMP JUMPDEST SWAP3 DUP10 ADD MLOAD SWAP6 DUP10 ADD SWAP6 SWAP1 SWAP6 MSTORE POP SWAP5 DUP8 ADD SWAP5 SWAP3 POP SWAP1 DUP7 ADD SWAP1 PUSH1 0x1 ADD PUSH2 0x1693 JUMP JUMPDEST POP SWAP1 SWAP9 SWAP8 POP POP POP POP POP POP POP POP JUMP JUMPDEST DUP4 DUP2 MSTORE PUSH1 0x60 PUSH1 0x20 DUP3 ADD MSTORE PUSH1 0x0 PUSH2 0x1706 PUSH1 0x60 DUP4 ADD DUP6 PUSH2 0x1626 JUMP JUMPDEST SWAP1 POP DUP3 PUSH1 0x40 DUP4 ADD MSTORE SWAP5 SWAP4 POP POP POP POP JUMP JUMPDEST DUP1 CALLDATALOAD PUSH1 0x1 PUSH1 0x1 PUSH1 0xA0 SHL SUB DUP2 AND DUP2 EQ PUSH2 0x172D JUMPI PUSH1 0x0 DUP1 REVERT JUMPDEST SWAP2 SWAP1 POP JUMP JUMPDEST PUSH1 0x0 PUSH1 0x20 DUP3 DUP5 SUB SLT ISZERO PUSH2 0x1744 JUMPI PUSH1 0x0 DUP1 REVERT JUMPDEST PUSH2 0x174D DUP3 PUSH2 0x1716 JUMP JUMPDEST SWAP4 SWAP3 POP POP POP JUMP JUMPDEST PUSH4 0x4E487B71 PUSH1 0xE0 SHL PUSH1 0x0 MSTORE PUSH1 0x41 PUSH1 0x4 MSTORE PUSH1 0x24 PUSH1 0x0 REVERT JUMPDEST PUSH1 0x40 MLOAD PUSH1 0x1F DUP3 ADD PUSH1 0x1F NOT AND DUP2 ADD PUSH8 0xFFFFFFFFFFFFFFFF DUP2 GT DUP3 DUP3 LT OR ISZERO PUSH2 0x1793 JUMPI PUSH2 0x1793 PUSH2 0x1754 JUMP JUMPDEST PUSH1 0x40 MSTORE SWAP2 SWAP1 POP JUMP JUMPDEST PUSH1 0x0 PUSH1 0x20 DUP1 DUP4 DUP6 SUB SLT ISZERO PUSH2 0x17AE JUMPI PUSH1 0x0 DUP1 REVERT JUMPDEST DUP3 CALLDATALOAD PUSH8 0xFFFFFFFFFFFFFFFF DUP1 DUP3 GT ISZERO PUSH2 0x17C6 JUMPI PUSH1 0x0 DUP1 REVERT JUMPDEST DUP2 DUP6 ADD SWAP2 POP DUP6 PUSH1 0x1F DUP4 ADD SLT PUSH2 0x17DA JUMPI PUSH1 0x0 DUP1 REVERT JUMPDEST DUP2 CALLDATALOAD DUP2 DUP2 GT ISZERO PUSH2 0x17EC JUMPI PUSH2 0x17EC PUSH2 0x1754 JUMP JUMPDEST PUSH2 0x17FE PUSH1 0x1F DUP3 ADD PUSH1 0x1F NOT AND DUP6 ADD PUSH2 0x176A JUMP JUMPDEST SWAP2 POP DUP1 DUP3 MSTORE DUP7 DUP5 DUP3 DUP6 ADD ADD GT ISZERO PUSH2 0x1814 JUMPI PUSH1 0x0 DUP1 REVERT JUMPDEST DUP1 DUP5 DUP5 ADD DUP6 DUP5 ADD CALLDATACOPY PUSH1 0x0 SWAP1 DUP3 ADD SWAP1 SWAP4 ADD SWAP3 SWAP1 SWAP3 MSTORE POP SWAP4 SWAP3 POP POP POP JUMP JUMPDEST PUSH1 0xA0 DUP2 MSTORE PUSH1 0x0 PUSH2 0x1843 PUSH1 0xA0 DUP4 ADD DUP9 PUSH2 0x1626 JUMP JUMPDEST SWAP6 ISZERO ISZERO PUSH1 0x20 DUP4 ADD MSTORE POP SWAP3 ISZERO ISZERO PUSH1 0x40 DUP5 ADD MSTORE PUSH1 0x60 DUP4 ADD SWAP2 SWAP1 SWAP2 MSTORE PUSH1 0x80 SWAP1 SWAP2 ADD MSTORE SWAP2 SWAP1 POP JUMP JUMPDEST PUSH1 0x20 DUP2 MSTORE PUSH1 0x0 PUSH2 0x174D PUSH1 0x20 DUP4 ADD DUP5 PUSH2 0x1626 JUMP JUMPDEST PUSH1 0x0 PUSH1 0x20 DUP1 DUP4 DUP6 SUB SLT ISZERO PUSH2 0x188D JUMPI PUSH1 0x0 DUP1 REVERT JUMPDEST DUP3 CALLDATALOAD PUSH8 0xFFFFFFFFFFFFFFFF DUP1 DUP3 GT ISZERO PUSH2 0x18A5 JUMPI PUSH1 0x0 DUP1 REVERT JUMPDEST DUP2 DUP6 ADD SWAP2 POP DUP6 PUSH1 0x1F DUP4 ADD SLT PUSH2 0x18B9 JUMPI PUSH1 0x0 DUP1 REVERT JUMPDEST DUP2 CALLDATALOAD DUP2 DUP2 GT ISZERO PUSH2 0x18CB JUMPI PUSH2 0x18CB PUSH2 0x1754 JUMP JUMPDEST DUP1 PUSH1 0x5 SHL SWAP2 POP PUSH2 0x18DC DUP5 DUP4 ADD PUSH2 0x176A JUMP JUMPDEST DUP2 DUP2 MSTORE SWAP2 DUP4 ADD DUP5 ADD SWAP2 DUP5 DUP2 ADD SWAP1 DUP9 DUP5 GT ISZERO PUSH2 0x18F6 JUMPI PUSH1 0x0 DUP1 REVERT JUMPDEST SWAP4 DUP6 ADD SWAP4 JUMPDEST DUP4 DUP6 LT ISZERO PUSH2 0x191B JUMPI PUSH2 0x190C DUP6 PUSH2 0x1716 JUMP JUMPDEST DUP3 MSTORE SWAP4 DUP6 ADD SWAP4 SWAP1 DUP6 ADD SWAP1 PUSH2 0x18FB JUMP JUMPDEST SWAP9 SWAP8 POP POP POP POP POP POP POP POP JUMP JUMPDEST PUSH4 0x4E487B71 PUSH1 0xE0 SHL PUSH1 0x0 MSTORE PUSH1 0x11 PUSH1 0x4 MSTORE PUSH1 0x24 PUSH1 0x0 REVERT JUMPDEST PUSH1 0x0 PUSH1 0x1 DUP3 ADD PUSH2 0x194F JUMPI PUSH2 0x194F PUSH2 0x1927 JUMP JUMPDEST POP PUSH1 0x1 ADD SWAP1 JUMP JUMPDEST PUSH1 0x20 DUP1 DUP3 MSTORE PUSH1 0x2F SWAP1 DUP3 ADD MSTORE PUSH32 0x5365756C206C652070726F707269657461697265207065757420657865637574 PUSH1 0x40 DUP3 ADD MSTORE PUSH15 0x32B91031B2BA3A329030B1BA34B7B7 PUSH1 0x89 SHL PUSH1 0x60 DUP3 ADD MSTORE PUSH1 0x80 ADD SWAP1 JUMP JUMPDEST PUSH1 0x1 DUP2 DUP2 SHR SWAP1 DUP3 AND DUP1 PUSH2 0x19B9 JUMPI PUSH1 0x7F DUP3 AND SWAP2 POP JUMPDEST PUSH1 0x20 DUP3 LT DUP2 SUB PUSH2 0x8A0 JUMPI PUSH4 0x4E487B71 PUSH1 0xE0 SHL PUSH1 0x0 MSTORE PUSH1 0x22 PUSH1 0x4 MSTORE PUSH1 0x24 PUSH1 0x0 REVERT JUMPDEST DUP2 DUP2 SUB DUP2 DUP2 GT ISZERO PUSH2 0x19EC JUMPI PUSH2 0x19EC PUSH2 0x1927 JUMP JUMPDEST SWAP3 SWAP2 POP POP JUMP JUMPDEST PUSH4 0x4E487B71 PUSH1 0xE0 SHL PUSH1 0x0 MSTORE PUSH1 0x32 PUSH1 0x4 MSTORE PUSH1 0x24 PUSH1 0x0 REVERT JUMPDEST PUSH1 0x1F DUP3 GT ISZERO PUSH2 0x1A52 JUMPI PUSH1 0x0 DUP2 DUP2 MSTORE PUSH1 0x20 DUP2 KECCAK256 PUSH1 0x1F DUP6 ADD PUSH1 0x5 SHR DUP2 ADD PUSH1 0x20 DUP7 LT ISZERO PUSH2 0x1A2F JUMPI POP DUP1 JUMPDEST PUSH1 0x1F DUP6 ADD PUSH1 0x5 SHR DUP3 ADD SWAP2 POP JUMPDEST DUP2 DUP2 LT ISZERO PUSH2 0x1A4E JUMPI DUP3 DUP2 SSTORE PUSH1 0x1 ADD PUSH2 0x1A3B JUMP JUMPDEST POP POP POP JUMPDEST POP POP POP JUMP JUMPDEST DUP2 MLOAD PUSH8 0xFFFFFFFFFFFFFFFF DUP2 GT ISZERO PUSH2 0x1A71 JUMPI PUSH2 0x1A71 PUSH2 0x1754 JUMP JUMPDEST PUSH2 0x1A85 DUP2 PUSH2 0x1A7F DUP5 SLOAD PUSH2 0x19A5 JUMP JUMPDEST DUP5 PUSH2 0x1A08 JUMP JUMPDEST PUSH1 0x20 DUP1 PUSH1 0x1F DUP4 GT PUSH1 0x1 DUP2 EQ PUSH2 0x1ABA JUMPI PUSH1 0x0 DUP5 ISZERO PUSH2 0x1AA2 JUMPI POP DUP6 DUP4 ADD MLOAD JUMPDEST PUSH1 0x0 NOT PUSH1 0x3 DUP7 SWAP1 SHL SHR NOT AND PUSH1 0x1 DUP6 SWAP1 SHL OR DUP6 SSTORE PUSH2 0x1A4E JUMP JUMPDEST PUSH1 0x0 DUP6 DUP2 MSTORE PUSH1 0x20 DUP2 KECCAK256 PUSH1 0x1F NOT DUP7 AND SWAP2 JUMPDEST DUP3 DUP2 LT ISZERO PUSH2 0x1AE9 JUMPI DUP9 DUP7 ADD MLOAD DUP3 SSTORE SWAP5 DUP5 ADD SWAP5 PUSH1 0x1 SWAP1 SWAP2 ADD SWAP1 DUP5 ADD PUSH2 0x1ACA JUMP JUMPDEST POP DUP6 DUP3 LT ISZERO PUSH2 0x1B07 JUMPI DUP8 DUP6 ADD MLOAD PUSH1 0x0 NOT PUSH1 0x3 DUP9 SWAP1 SHL PUSH1 0xF8 AND SHR NOT AND DUP2 SSTORE JUMPDEST POP POP POP POP POP PUSH1 0x1 SWAP1 DUP2 SHL ADD SWAP1 SSTORE POP JUMP INVALID LOG2 PUSH5 0x6970667358 0x22 SLT KECCAK256 SELFBALANCE SIGNEXTEND STATICCALL 0x2B PUSH32 0x61A36AEF804C84AA61F09EA91BC24C87F0B24A5D14AB97CE2941764736F6C63 NUMBER STOP ADDMOD SGT STOP CALLER "},"methodIdentifiers":{"addCandidate(string)":"462e91ec","candidates(uint256)":"3477ee2e","candidatesCount()":"2d35a8a2","endVoting()":"c3403ddf","getAllCandidates()":"2e6997fe","getCandidate(uint256)":"35b8e820","getVoterInfo(address)":"9ed1f255","getVotingStatus()":"581c281c","getWinningCandidate()":"f927cc29","owner()":"8da5cb5b","registerMultipleVoters(address[])":"f225c1f8","registerVoter(address)":"38db6dd3","resetMultipleVoters(address[])":"f90cbf2f","resetVoter(address)":"ba05269b","resetVoting(string)":"6f5cfd82","startVoting()":"1ec6b60a","totalVotes()":"0d15fd77","vote(uint256)":"0121b93f","voters(address)":"a3ec138d","votingActive()":"408e2727","votingEnded()":"9d5a0529","votingTitle()":"711e6eed"}}}}}