{
  "_format": "hh-sol-artifact-1",
  "contractName": "Voting",
  "sourceName": "contracts/Voting.sol",
  "abi": [
    {
      "inputs": [
        {
          "internalType": "string",
          "name": "_title",
          "type": "string"
        }
      ],
      "stateMutability": "nonpayable",
      "type": "constructor"
    },
    {
      "anonymous": false,
      "inputs": [
        {
          "indexed": true,
          "internalType": "uint256",
          "name": "candidateId",
          "type": "uint256"
        },
        {
          "indexed": false,
          "internalType": "string",
          "name": "name",
          "type": "string"
        }
      ],
      "name": "CandidateAdded",
      "type": "event"
    },
    {
      "anonymous": false,
      "inputs": [
        {
          "indexed": true,
          "internalType": "address",
          "name": "voter",
          "type": "address"
        },
        {
          "indexed": true,
          "internalType": "uint256",
          "name": "candidateId",
          "type": "uint256"
        }
      ],
      "name": "VoteCasted",
      "type": "event"
    },
    {
      "anonymous": false,
      "inputs": [
        {
          "indexed": true,
          "internalType": "address",
          "name": "voter",
          "type": "address"
        }
      ],
      "name": "VoterRegistered",
      "type": "event"
    },
    {
      "anonymous": false,
      "inputs": [],
      "name": "VotingEnded",
      "type": "event"
    },
    {
      "anonymous": false,
      "inputs": [],
      "name": "VotingReset",
      "type": "event"
    },
    {
      "anonymous": false,
      "inputs": [],
      "name": "VotingStarted",
      "type": "event"
    },
    {
      "inputs": [
        {
          "internalType": "string",
          "name": "_name",
          "type": "string"
        }
      ],
      "name": "addCandidate",
      "outputs": [],
      "stateMutability": "nonpayable",
      "type": "function"
    },
    {
      "inputs": [
        {
          "internalType": "uint256",
          "name": "",
          "type": "uint256"
        }
      ],
      "name": "candidates",
      "outputs": [
        {
          "internalType": "uint256",
          "name": "id",
          "type": "uint256"
        },
        {
          "internalType": "string",
          "name": "name",
          "type": "string"
        },
        {
          "internalType": "uint256",
          "name": "voteCount",
          "type": "uint256"
        }
      ],
      "stateMutability": "view",
      "type": "function"
    },
    {
      "inputs": [],
      "name": "candidatesCount",
      "outputs": [
        {
          "internalType": "uint256",
          "name": "",
          "type": "uint256"
        }
      ],
      "stateMutability": "view",
      "type": "function"
    },
    {
      "inputs": [],
      "name": "endVoting",
      "outputs": [],
      "stateMutability": "nonpayable",
      "type": "function"
    },
    {
      "inputs": [],
      "name": "getAllCandidates",
      "outputs": [
        {
          "components": [
            {
              "internalType": "uint256",
              "name": "id",
              "type": "uint256"
            },
            {
              "internalType": "string",
              "name": "name",
              "type": "string"
            },
            {
              "internalType": "uint256",
              "name": "voteCount",
              "type": "uint256"
            }
          ],
          "internalType": "struct Voting.Candidate[]",
          "name": "",
          "type": "tuple[]"
        }
      ],
      "stateMutability": "view",
      "type": "function"
    },
    {
      "inputs": [
        {
          "internalType": "uint256",
          "name": "_candidateId",
          "type": "uint256"
        }
      ],
      "name": "getCandidate",
      "outputs": [
        {
          "internalType": "uint256",
          "name": "",
          "type": "uint256"
        },
        {
          "internalType": "string",
          "name": "",
          "type": "string"
        },
        {
          "internalType": "uint256",
          "name": "",
          "type": "uint256"
        }
      ],
      "stateMutability": "view",
      "type": "function"
    },
    {
      "inputs": [
        {
          "internalType": "address",
          "name": "_voter",
          "type": "address"
        }
      ],
      "name": "getVoterInfo",
      "outputs": [
        {
          "internalType": "bool",
          "name": "",
          "type": "bool"
        },
        {
          "internalType": "bool",
          "name": "",
          "type": "bool"
        },
        {
          "internalType": "uint256",
          "name": "",
          "type": "uint256"
        }
      ],
      "stateMutability": "view",
      "type": "function"
    },
    {
      "inputs": [],
      "name": "getVotingStatus",
      "outputs": [
        {
          "internalType": "string",
          "name": "",
          "type": "string"
        },
        {
          "internalType": "bool",
          "name": "",
          "type": "bool"
        },
        {
          "internalType": "bool",
          "name": "",
          "type": "bool"
        },
        {
          "internalType": "uint256",
          "name": "",
          "type": "uint256"
        },
        {
          "internalType": "uint256",
          "name": "",
          "type": "uint256"
        }
      ],
      "stateMutability": "view",
      "type": "function"
    },
    {
      "inputs": [],
      "name": "getWinningCandidate",
      "outputs": [
        {
          "internalType": "uint256",
          "name": "",
          "type": "uint256"
        },
        {
          "internalType": "string",
          "name": "",
          "type": "string"
        },
        {
          "internalType": "uint256",
          "name": "",
          "type": "uint256"
        }
      ],
      "stateMutability": "view",
      "type": "function"
    },
    {
      "inputs": [],
      "name": "owner",
      "outputs": [
        {
          "internalType": "address",
          "name": "",
          "type": "address"
        }
      ],
      "stateMutability": "view",
      "type": "function"
    },
    {
      "inputs": [
        {
          "internalType": "address[]",
          "name": "_voters",
          "type": "address[]"
        }
      ],
      "name": "registerMultipleVoters",
      "outputs": [],
      "stateMutability": "nonpayable",
      "type": "function"
    },
    {
      "inputs": [
        {
          "internalType": "address",
          "name": "_voter",
          "type": "address"
        }
      ],
      "name": "registerVoter",
      "outputs": [],
      "stateMutability": "nonpayable",
      "type": "function"
    },
    {
      "inputs": [
        {
          "internalType": "address[]",
          "name": "_voters",
          "type": "address[]"
        }
      ],
      "name": "resetMultipleVoters",
      "outputs": [],
      "stateMutability": "nonpayable",
      "type": "function"
    },
    {
      "inputs": [
        {
          "internalType": "address",
          "name": "_voter",
          "type": "address"
        }
      ],
      "name": "resetVoter",
      "outputs": [],
      "stateMutability": "nonpayable",
      "type": "function"
    },
    {
      "inputs": [
        {
          "internalType": "string",
          "name": "_newTitle",
          "type": "string"
        }
      ],
      "name": "resetVoting",
      "outputs": [],
      "stateMutability": "nonpayable",
      "type": "function"
    },
    {
      "inputs": [],
      "name": "startVoting",
      "outputs": [],
      "stateMutability": "nonpayable",
      "type": "function"
    },
    {
      "inputs": [],
      "name": "totalVotes",
      "outputs": [
        {
          "internalType": "uint256",
          "name": "",
          "type": "uint256"
        }
      ],
      "stateMutability": "view",
      "type": "function"
    },
    {
      "inputs": [
        {
          "internalType": "uint256",
          "name": "_candidateId",
          "type": "uint256"
        }
      ],
      "name": "vote",
      "outputs": [],
      "stateMutability": "nonpayable",
      "type": "function"
    },
    {
      "inputs": [
        {
          "internalType": "address",
          "name": "",
          "type": "address"
        }
      ],
      "name": "voters",
      "outputs": [
        {
          "internalType": "bool",
          "name": "hasVoted",
          "type": "bool"
        },
        {
          "internalType": "uint256",
          "name": "votedCandidateId",
          "type": "uint256"
        },
        {
          "internalType": "bool",
          "name": "isRegistered",
          "type": "bool"
        }
      ],
      "stateMutability": "view",
      "type": "function"
    },
    {
      "inputs": [],
      "name": "votingActive",
      "outputs": [
        {
          "internalType": "bool",
          "name": "",
          "type": "bool"
        }
      ],
      "stateMutability": "view",
      "type": "function"
    },
    {
      "inputs": [],
      "name": "votingEnded",
      "outputs": [
        {
          "internalType": "bool",
          "name": "",
          "type": "bool"
        }
      ],
      "stateMutability": "view",
      "type": "function"
    },
    {
      "inputs": [],
      "name": "votingTitle",
      "outputs": [
        {
          "internalType": "string",
          "name": "",
          "type": "string"
        }
      ],
      "stateMutability": "view",
      "type": "function"
    }
  ],
  "bytecode": "0x60806040523480156200001157600080fd5b5060405162001e1438038062001e14833981016040819052620000349162000087565b600080546001600160a01b031916331790556001620000548282620001eb565b50506002805461ffff1916905560006005819055600655620002b7565b634e487b7160e01b600052604160045260246000fd5b600060208083850312156200009b57600080fd5b82516001600160401b0380821115620000b357600080fd5b818501915085601f830112620000c857600080fd5b815181811115620000dd57620000dd62000071565b604051601f8201601f19908116603f0116810190838211818310171562000108576200010862000071565b8160405282815288868487010111156200012157600080fd5b600093505b8284101562000145578484018601518185018701529285019262000126565b600086848301015280965050505050505092915050565b600181811c908216806200017157607f821691505b6020821081036200019257634e487b7160e01b600052602260045260246000fd5b50919050565b601f821115620001e657600081815260208120601f850160051c81016020861015620001c15750805b601f850160051c820191505b81811015620001e257828155600101620001cd565b5050505b505050565b81516001600160401b0381111562000207576200020762000071565b6200021f816200021884546200015c565b8462000198565b602080601f8311600181146200025757600084156200023e5750858301515b600019600386901b1c1916600185901b178555620001e2565b600085815260208120601f198616915b82811015620002885788860151825594840194600190910190840162000267565b5085821015620002a75787850151600019600388901b60f8161c191681555b5050505050600190811b01905550565b611b4d80620002c76000396000f3fe608060405234801561001057600080fd5b50600436106101425760003560e01c80636f5cfd82116100b8578063a3ec138d1161007c578063a3ec138d1461030b578063ba05269b1461035e578063c3403ddf14610371578063f225c1f814610379578063f90cbf2f1461038c578063f927cc291461039f57600080fd5b80636f5cfd821461022f578063711e6eed146102425780638da5cb5b146102575780639d5a0529146102825780639ed1f2551461029457600080fd5b80633477ee2e1161010a5780633477ee2e1461019e57806335b8e820146101c057806338db6dd3146101d3578063408e2727146101e6578063462e91ec14610203578063581c281c1461021657600080fd5b80630121b93f146101475780630d15fd771461015c5780631ec6b60a146101785780632d35a8a2146101805780632e6997fe14610189575b600080fd5b61015a61015536600461160d565b6103a7565b005b61016560065481565b6040519081526020015b60405180910390f35b61015a6105ae565b61016560055481565b61019161071d565b60405161016f919061166c565b6101b16101ac36600461160d565b6108a6565b60405161016f939291906116ed565b6101b16101ce36600461160d565b610951565b61015a6101e1366004611732565b610a89565b6002546101f39060ff1681565b604051901515815260200161016f565b61015a61021136600461179b565b610b7c565b61021e610d19565b60405161016f959493929190611830565b61015a61023d36600461179b565b610de6565b61024a610f0f565b60405161016f9190611867565b60005461026a906001600160a01b031681565b6040516001600160a01b03909116815260200161016f565b6002546101f390610100900460ff1681565b6102ee6102a2366004611732565b6001600160a01b03166000908152600460209081526040918290208251606081018452815460ff9081161515808352600184015494830185905260029093015416151593018390529192565b60408051931515845291151560208401529082015260600161016f565b61033f610319366004611732565b60046020526000908152604090208054600182015460029092015460ff91821692911683565b604080519315158452602084019290925215159082015260600161016f565b61015a61036c366004611732565b610f9d565b61015a611057565b61015a61038736600461187a565b61115a565b61015a61039a36600461187a565b611335565b6101b1611464565b60025460ff1680156103c15750600254610100900460ff16155b61040c5760405162461bcd60e51b81526020600482015260176024820152762632903b37ba32903713b2b9ba103830b99030b1ba34b360491b60448201526064015b60405180910390fd5b3360009081526004602052604090205460ff16156104625760405162461bcd60e51b8152602060048201526013602482015272566f7573206176657a2064656a6120766f746560681b6044820152606401610403565b3360009081526004602052604090206002015460ff166104d65760405162461bcd60e51b815260206004820152602960248201527f566f7573206e27657465732070617320656e726567697374726520636f6d6d656044820152681032b632b1ba32bab960b91b6064820152608401610403565b6000811180156104e857506005548111155b6105285760405162461bcd60e51b815260206004820152601160248201527043616e646964617420696e76616c69646560781b6044820152606401610403565b336000908152600460209081526040808320805460ff19166001908117825501849055838352600390915281206002018054916105648361193d565b9091555050600680549060006105798361193d565b9091555050604051819033907fd0e6c39f2e086dc49f1524b47725526a56945cd1ff661f37976f1725a1e5698690600090a350565b6000546001600160a01b031633146105d85760405162461bcd60e51b815260040161040390611956565b6000600554116106465760405162461bcd60e51b815260206004820152603360248201527f496c2066617574206175206d6f696e7320756e2063616e646964617420706f756044820152727220636f6d6d656e636572206c6520766f746560681b6064820152608401610403565b60025460ff16156106925760405162461bcd60e51b81526020600482015260166024820152752632903b37ba329032b9ba103232b5309030b1ba34b360511b6044820152606401610403565b600254610100900460ff16156106e55760405162461bcd60e51b81526020600482015260186024820152774c6520766f7465206573742064656a61207465726d696e6560401b6044820152606401610403565b6002805460ff191660011790556040517f877e2548498f42b7975a186b94ef1d32c86d420b7b806dd2be2bea293b89590490600090a1565b6060600060055467ffffffffffffffff81111561073c5761073c611754565b60405190808252806020026020018201604052801561079157816020015b61077e60405180606001604052806000815260200160608152602001600081525090565b81526020019060019003908161075a5790505b50905060015b60055481116108a05760036000828152602001908152602001600020604051806060016040529081600082015481526020016001820180546107d8906119a5565b80601f0160208091040260200160405190810160405280929190818152602001828054610804906119a5565b80156108515780601f1061082657610100808354040283529160200191610851565b820191906000526020600020905b81548152906001019060200180831161083457829003601f168201915b505050505081526020016002820154815250508260018361087291906119d9565b81518110610882576108826119f2565b602002602001018190525080806108989061193d565b915050610797565b50919050565b600360205260009081526040902080546001820180549192916108c8906119a5565b80601f01602080910402602001604051908101604052809291908181526020018280546108f4906119a5565b80156109415780601f1061091657610100808354040283529160200191610941565b820191906000526020600020905b81548152906001019060200180831161092457829003601f168201915b5050505050908060020154905083565b600060606000808411801561096857506005548411155b6109a85760405162461bcd60e51b815260206004820152601160248201527043616e646964617420696e76616c69646560781b6044820152606401610403565b600060036000868152602001908152602001600020604051806060016040529081600082015481526020016001820180546109e2906119a5565b80601f0160208091040260200160405190810160405280929190818152602001828054610a0e906119a5565b8015610a5b5780601f10610a3057610100808354040283529160200191610a5b565b820191906000526020600020905b815481529060010190602001808311610a3e57829003601f168201915b5050509183525050600291909101546020918201528151908201516040909201519097919650945092505050565b6000546001600160a01b03163314610ab35760405162461bcd60e51b815260040161040390611956565b6001600160a01b03811660009081526004602052604090206002015460ff1615610b1f5760405162461bcd60e51b815260206004820181905260248201527f43657420656c656374657572206573742064656a6120656e72656769737472656044820152606401610403565b6001600160a01b038116600081815260046020526040808220600281018054600160ff199182168117909255825416825501829055517fb6be2187d059cc2a55fe29e0e503b566e1e0f8c8780096e185429350acffd3dd9190a250565b6000546001600160a01b03163314610ba65760405162461bcd60e51b815260040161040390611956565b60025460ff1615610c145760405162461bcd60e51b815260206004820152603260248201527f496d706f737369626c65206427616a6f75746572206465732063616e6469646160448201527174732070656e64616e74206c6520766f746560701b6064820152608401610403565b6000815111610c765760405162461bcd60e51b815260206004820152602860248201527f4c65206e6f6d2064752063616e6469646174206e652070657574207061732065604482015267747265207669646560c01b6064820152608401610403565b60058054906000610c868361193d565b9091555050604080516060810182526005548082526020808301858152600084860181905292835260039091529290208151815591519091906001820190610cce9082611a57565b50604082015181600201559050506005547fe83b2a43e7e82d975c8a0a6d2f045153c869e111136a34d1889ab7b598e396a382604051610d0e9190611867565b60405180910390a250565b60606000806000806001600260009054906101000a900460ff16600260019054906101000a900460ff16600554600654848054610d55906119a5565b80601f0160208091040260200160405190810160405280929190818152602001828054610d81906119a5565b8015610dce5780601f10610da357610100808354040283529160200191610dce565b820191906000526020600020905b815481529060010190602001808311610db157829003601f168201915b50505050509450945094509450945094509091929394565b6000546001600160a01b03163314610e105760405162461bcd60e51b815260040161040390611956565b600254610100900460ff16610e8d5760405162461bcd60e51b815260206004820152603b60248201527f4c6520766f746520646f69742065747265207465726d696e65206176616e742060448201527f646520706f75766f6972206c65207265696e697469616c6973657200000000006064820152608401610403565b6002805461ffff191690556000600655805115610eb2576001610eb08282611a57565b505b60015b6005548111610ee25760008181526003602052604081206002015580610eda8161193d565b915050610eb5565b506040517feb4b0a76799cb305ae86d5a0b30e0e77b1e23fa8cb85eb788ede212bd6b324a690600090a150565b60018054610f1c906119a5565b80601f0160208091040260200160405190810160405280929190818152602001828054610f48906119a5565b8015610f955780601f10610f6a57610100808354040283529160200191610f95565b820191906000526020600020905b815481529060010190602001808311610f7857829003601f168201915b505050505081565b6000546001600160a01b03163314610fc75760405162461bcd60e51b815260040161040390611956565b6001600160a01b03811660009081526004602052604090206002015460ff166110325760405162461bcd60e51b815260206004820152601f60248201527f4c27656c656374657572206e276573742070617320656e7265676973747265006044820152606401610403565b6001600160a01b03166000908152600460205260408120805460ff1916815560010155565b6000546001600160a01b031633146110815760405162461bcd60e51b815260040161040390611956565b60025460ff166110cd5760405162461bcd60e51b81526020600482015260176024820152762632903b37ba32903713b2b9ba103830b99030b1ba34b360491b6044820152606401610403565b600254610100900460ff16156111205760405162461bcd60e51b81526020600482015260186024820152774c6520766f7465206573742064656a61207465726d696e6560401b6044820152606401610403565b6002805461ffff19166101001790556040517f7a19ed057db79e3c2fa0b97a54b43bef4fce74b31bb6c01af514b9a18a7f70ab90600090a1565b6000546001600160a01b031633146111845760405162461bcd60e51b815260040161040390611956565b60005b815181101561133157600460008383815181106111a6576111a66119f2565b6020908102919091018101516001600160a01b031682528101919091526040016000206002015460ff1661131f576001600460008484815181106111ec576111ec6119f2565b60200260200101516001600160a01b03166001600160a01b0316815260200190815260200160002060020160006101000a81548160ff021916908315150217905550600060046000848481518110611246576112466119f2565b60200260200101516001600160a01b03166001600160a01b0316815260200190815260200160002060000160006101000a81548160ff0219169083151502179055506000600460008484815181106112a0576112a06119f2565b60200260200101516001600160a01b03166001600160a01b03168152602001908152602001600020600101819055508181815181106112e1576112e16119f2565b60200260200101516001600160a01b03167fb6be2187d059cc2a55fe29e0e503b566e1e0f8c8780096e185429350acffd3dd60405160405180910390a25b806113298161193d565b915050611187565b5050565b6000546001600160a01b0316331461135f5760405162461bcd60e51b815260040161040390611956565b60005b81518110156113315760046000838381518110611381576113816119f2565b6020908102919091018101516001600160a01b031682528101919091526040016000206002015460ff1615611452576000600460008484815181106113c8576113c86119f2565b60200260200101516001600160a01b03166001600160a01b0316815260200190815260200160002060000160006101000a81548160ff021916908315150217905550600060046000848481518110611422576114226119f2565b60200260200101516001600160a01b03166001600160a01b03168152602001908152602001600020600101819055505b8061145c8161193d565b915050611362565b600060606000600260019054906101000a900460ff166114c65760405162461bcd60e51b815260206004820181905260248201527f4c6520766f7465206e276573742070617320656e636f7265207465726d696e656044820152606401610403565b6000600554116115095760405162461bcd60e51b815260206004820152600e60248201526d105d58dd5b8818d85b991a59185d60921b6044820152606401610403565b60008060015b600554811161155b576000818152600360205260409020600201548310156115495760008181526003602052604090206002015492509050805b806115538161193d565b91505061150f565b50806003600083815260200190815260200160002060010183818054611580906119a5565b80601f01602080910402602001604051908101604052809291908181526020018280546115ac906119a5565b80156115f95780601f106115ce576101008083540402835291602001916115f9565b820191906000526020600020905b8154815290600101906020018083116115dc57829003601f168201915b505050505091509450945094505050909192565b60006020828403121561161f57600080fd5b5035919050565b6000815180845260005b8181101561164c57602081850181015186830182015201611630565b506000602082860101526020601f19601f83011685010191505092915050565b60006020808301818452808551808352604092508286019150828160051b87010184880160005b838110156116df57603f19898403018552815160608151855288820151818a8701526116c182870182611626565b92890151958901959095525094870194925090860190600101611693565b509098975050505050505050565b8381526060602082015260006117066060830185611626565b9050826040830152949350505050565b80356001600160a01b038116811461172d57600080fd5b919050565b60006020828403121561174457600080fd5b61174d82611716565b9392505050565b634e487b7160e01b600052604160045260246000fd5b604051601f8201601f1916810167ffffffffffffffff8111828210171561179357611793611754565b604052919050565b600060208083850312156117ae57600080fd5b823567ffffffffffffffff808211156117c657600080fd5b818501915085601f8301126117da57600080fd5b8135818111156117ec576117ec611754565b6117fe601f8201601f1916850161176a565b9150808252868482850101111561181457600080fd5b8084840185840137600090820190930192909252509392505050565b60a08152600061184360a0830188611626565b95151560208301525092151560408401526060830191909152608090910152919050565b60208152600061174d6020830184611626565b6000602080838503121561188d57600080fd5b823567ffffffffffffffff808211156118a557600080fd5b818501915085601f8301126118b957600080fd5b8135818111156118cb576118cb611754565b8060051b91506118dc84830161176a565b81815291830184019184810190888411156118f657600080fd5b938501935b8385101561191b5761190c85611716565b825293850193908501906118fb565b98975050505050505050565b634e487b7160e01b600052601160045260246000fd5b60006001820161194f5761194f611927565b5060010190565b6020808252602f908201527f5365756c206c652070726f70726965746169726520706575742065786563757460408201526e32b91031b2ba3a329030b1ba34b7b760891b606082015260800190565b600181811c908216806119b957607f821691505b6020821081036108a057634e487b7160e01b600052602260045260246000fd5b818103818111156119ec576119ec611927565b92915050565b634e487b7160e01b600052603260045260246000fd5b601f821115611a5257600081815260208120601f850160051c81016020861015611a2f5750805b601f850160051c820191505b81811015611a4e57828155600101611a3b565b5050505b505050565b815167ffffffffffffffff811115611a7157611a71611754565b611a8581611a7f84546119a5565b84611a08565b602080601f831160018114611aba5760008415611aa25750858301515b600019600386901b1c1916600185901b178555611a4e565b600085815260208120601f198616915b82811015611ae957888601518255948401946001909101908401611aca565b5085821015611b075787850151600019600388901b60f8161c191681555b5050505050600190811b0190555056fea2646970667358221220470bfa2b7f061a36aef804c84aa61f09ea91bc24c87f0b24a5d14ab97ce2941764736f6c63430008130033",
  "linkReferences": {},
  "deployedLinkReferences": {}
}